:020000040800F2
:10000000C04D002061020008870D00082F0800087D
:10001000850D000891030008F91100080000000098
:10002000000000000000000000000000A101000826
:100030009303000800000000FD0100088D0E000879
:100040007B0200087B0200087B0200087B0200089C
:100050007B0200087B0200087B0200087B0200088C
:100060007B0200087B0200087B0200087B0200087C
:100070007B0200087B0200087B0200087B0200086C
:100080007B0200087B0200087B0200087B0200085C
:100090007B0200087B0200087B0200087B0200084C
:1000A0007B0200087B0200087B0200087B0200083C
:1000B0007B0200087B0200088D0F00087B0200080D
:1000C0007B0200087B0200087B0200087B0200081C
:1000D0007B0200087B0200087B0200087B0200080C
:1000E0007B0200087B0200087B0200087B020008FC
:1000F0007B0200087B0200087B0200087B020008EC
:100100007B0200087B0200087B0200087B020008DB
:100110007B0200087B020008990F00085D100008B0
:100120007B0200087B0200087B0200087B020008BB
:100130007B0200087B0200087B0200087B020008AB
:100140007B0200087B0200087B0200087B0200089B
:100150007B0200087B0200087B0200087B0200088B
:100160007B0200087B0200087B0200087B0200087B
:100170007B0200087B0200087B02000800000000F0
:100180007B0200087B020008DFF810D000F0EEF8D8
:100190000048004755130008AFF30080C04D002011
:1001A0002C4B19680868B0E8F04F80F30988BFF35A
:1001B0006F8F4FF0000080F311887047000000003F
:1001C00008480068006880F308884FF0000080F35A
:1001D000148862B661B6BFF34F8FBFF36F8F00DF35
:1001E00000BF00BF08ED00E0DFF80C00016841F43B
:1001F00070010160704700BF88ED00E0EFF30980F7
:10020000BFF36F8F134B1A681EF0100F08BF20ED5D
:10021000108A20E9F04F106009B44FF0500080F3CD
:100220001188BFF34F8FBFF36F8F01F0B9FF4FF00D
:10023000000080F3118809BC19680868B0E8F04F25
:100240001EF0100F08BFB0EC108A80F30988BFF3CE
:100250006F8F704718000020EFF305807047000093
:100260000648804706480047FEE7FEE7FEE7FEE750
:10027000FEE7FEE7FEE7FEE7FEE7FEE77D0F00088C
:10028000890100082DE9F05F0546002092469B4653
:1002900088460646814640241BE02846414647469C
:1002A000224600F053F853465A46C01A914110D3E3
:1002B00011461846224600F03AF82D1A67EB01085D
:1002C0004F4622460120002100F031F817EB0009CB
:1002D0004E41201EA4F10104DFDC484631462A4687
:1002E0004346BDE8F09F40EA01039B0703D009E0C5
:1002F00008C9121F08C0042AFAD203E011F8013B12
:1003000000F8013B521EF9D27047D2B201E000F86A
:10031000012B491EFBD270470022F6E710B51346A9
:100320000A4604461946FFF7F0FF204610BD202A72
:1003300004DB203A00FA02F1002070479140C2F13C
:10034000200320FA03F3194390407047202A04DB6E
:10035000203A21FA02F00021704721FA02F3D0403E
:10036000C2F120029140084319467047064C074DE0
:1003700006E0E06840F0010394E807009847103475
:10038000AC42F6D3FFF704FF442C0008642C0008AD
:10039000FEE7704702488168027811448160704727
:1003A000080000200B4810B5016841F4007101609D
:1003B000016841F480610160016841F4807101606D
:1003C000032000F09FF80F2000F006F800F050F82E
:1003D000002010BD003C024030B505461F4887B0E4
:1003E0000024016841F004010160006806A900F0E2
:1003F0000400009001A800F097F80498A8B100F05C
:10040000B3F840001649174AB0FBF1F11648491EEF
:10041000026040F2E732C0E90324C0E901148461BC
:1004200000F0B4F8040003D015E000F09DF8E9E70F
:100430000D4800F015F904000DD11E2000F034F82D
:10044000102D07D2002229461E2000F03BF8074855
:10045000056000E0012407B0204630BD403802406E
:1004600040420F0000080040A00000200C000020C7
:100470000C4882B0016841F480410160006800F4DA
:10048000804000900748001F016841F080510160E2
:100490000068002200F0805000900F21901E02B0F2
:1004A00000F010B844380240002809DB00F01F02B9
:1004B000012191404009800000F1E020C0F80011C6
:1004C00070470000F0B40E4B1B680C46C3F30223C8
:1004D000C3F10705042D00D90425191D072901D2F0
:1004E000002300E0DB1E012606FA05F1491E21402B
:1004F00099409E40761E16403143F0BC00F0A3BEEA
:100500000CED00E0064900F0070208684FF6FF0313
:10051000184040EA0220034A104308607047000078
:100520000CED00E00000FA050F2202600C4A13688F
:1005300003F003034360136803F0F0038360136860
:1005400003F4E053C36012684FF4E05303EAD202AD
:1005500002610448006800F007000860704700006E
:1005600008380240003C0240044805490068096818
:10057000044AC1F38221515CC84070471400002036
:1005800008380240302C00087047704710B504004E
:1005900003D094F83D0010B107E0012010BD002009
:1005A00084F83C00204600F01EF8022084F83D004C
:1005B000211D206800F0B4FD012084F8460084F875
:1005C0003E0084F83F0084F8400084F8410084F83D
:1005D000420084F8430084F8440084F8450084F81D
:1005E0003D00002010BD704790F83D10012901D05A
:1005F00001207047022180F83D10006811498842AF
:1006000014D0B0F1804F11D00F4988420ED00F495D
:1006100088420BD00E49884208D00E49884205D046
:100620000D49884202D00D49884204D1816801F009
:100630000701062903D0016841F001010160002093
:100640007047000000000140000400400008004026
:10065000000C004000040140004001400018004030
:1006600090F83D10012901D001207047022180F847
:100670003D100168CA6842F00102CA600068114971
:10068000884214D0B0F1804F11D00F4988420ED06B
:100690000E4988420BD00E49884208D00D49884245
:1006A00005D00D49884202D00C49884204D18168A6
:1006B00001F00701062903D0016841F00101016042
:1006C0000020704700000140000400400008004086
:1006D000000C0040000401400040014000180040B0
:1006E00070472DE9F04104460068C66805694FF07F
:1006F0000007A90713D5B10711D5F91E0161012023
:100700002077206880698007204602D0FFF7E8FF45
:1007100004E000F07EF8204600F07CF827776807B8
:1007200016D5700714D521686FF004000861022007
:1007300020772068806910F4407F204602D0FFF7C0
:10074000CFFF04E000F065F8204600F063F827775B
:10075000280715D5300713D521686FF00800086108
:10076000042020772068C0698007204602D0FFF768
:10077000B7FF04E000F04DF8204600F04BF8277773
:10078000E80616D5F00614D521686FF01000086150
:10079000082020772068C06910F4407F204602D0EE
:1007A000FFF79EFF04E000F034F8204600F032F836
:1007B0002777E80708D0F00706D021686FF001001E
:1007C0000861204600F028F8280608D5300606D52E
:1007D00021686FF0800008612046FFF7D5FE6806AB
:1007E00008D5700606D521686FF0400008612046E4
:1007F00000F01CF8A8060AD5B00608D521686FF0ED
:10080000200008612046BDE8F041FFF7BEBEBDE80C
:10081000F08170477047000000680349884201D1A9
:10082000FFF7B8BD70470000000800407047FEE7C2
:1008300000B587B018216846FFF76EFD09480168CA
:1008400041F0010101600068002100F00100069004
:100850000120CDE9000104906946034800F052F8F8
:1008600007B000BD303802400000024000244FF4C1
:100870007A75641CE4B2052C13D100240BA000F09F
:10088000BDFC502181F31188BFF34F8FBFF36F8FF1
:10089000052000F02FFD0AA000F0B0FC002181F33C
:1008A0001188284601F080FBE3E70000E585B3E40A
:1008B000B8ADE696ADEFBC81EFBC815C720A00007A
:1008C000E5BC80E4B8ADE696ADEFBC81EFBC810D30
:1008D0000A000000044908B50A6802430A60096872
:1008E0000140009108BD000030380240044908B5BD
:1008F0000A6802430A6009680140009108BD0000CF
:1009000040380240F0B50A680F2692FAA2F2B2FA15
:1009100082F303248AE001279F4015EA07027DD075
:100920004D68012D01D0022D1BD18D68876892FA88
:10093000A2FCBCFA8CFC4FEA4C0C04FA0CFC27EA33
:100940000C0792FAA2FCBCFA8CFC4FEA4C0C05FA9C
:100950000CF52F438760CD684768554397432F4375
:1009600047600F69D0F80CC092FAA2F5B5FA85F588
:100970004FEA450E04FA0EF52CEA050C92FAA2F5A0
:10098000B5FA85F56D00AF404CEA070CC0F80CC015
:100990004D68022D33D192FAA2F5B5FA85F5082DEE
:1009A00015D2D1F814C0056A92FAA2F7B7FA87F700
:1009B000BF0006FA07F7BD4392FAA2F7B7FA87F726
:1009C000BF000CFA07FC45EA0C05056217E0D1F8F8
:1009D00014E0476A150A95FAA5FCBCFA8CFC4FEAAC
:1009E0008C0C06FA0CFC95FAA5F5B5FA85F5AD0068
:1009F00027EA0C070EFA05FE47EA0E0747624D6824
:100A0000076892FAA2FCBCFA8CFC4FEA4C0C04FA80
:100A10000CFE27EA0E0792FAA2F200E005E0B2FA15
:100A200082F2520095402F4307605B1C0A6815460E
:100A3000DA407FF470AF0020F0BD10B5044600F03E
:100A4000E7F9206000F0BAF9606000F0C5F9A06035
:100A5000606800F0CFF9E06010BD00000149086057
:100A60007047000014000020F0B50268254B264DA9
:100A7000264E274F274C4FF0804C984209D06045B6
:100A800007D0A84205D0B04203D0B84201D0A0425E
:100A900005D1D1F804E022F0700242EA0E02984239
:100AA0001BD0604519D0A84217D0B04215D0B8422B
:100AB00013D0A04211D0184DA8420ED0174DA84215
:100AC0000BD0174DA84208D0164DA84205D0164DA0
:100AD000A84202D0154DA84203D1CD6822F440723D
:100AE0002A4302608A68C2620A888262984201D000
:100AF000A04201D109690163416941F001014161ED
:100B00000020F0BD0000014000040040000800404B
:100B1000000C00400004014000400140004401403E
:100B20000048014000180040001C00400020004028
:100B30007FB50446C0680D460126C0F34030C0BBF7
:100B4000E9686868AA690843296911430843E168AC
:100B500049F20C6291430843E060A868216921F4DE
:100B60004051014321616869616921F44071014389
:100B700061616846FFF761FF0F48844208D00F4863
:100B800084420DD00E4884420AD00E48844201D1DE
:100B9000039906E00C48844202D00C48844208D1F4
:100BA000029931B12B6823B100262046AA6900F0D2
:100BB0000FF804B0304670BD001001400044004002
:100BC0000048004000140140004C0040005000402C
:100BD0002DE9F04106461920A1FB00011F46002324
:100BE00064243225B2F5004F27D0BB0FBA00FFF7BF
:100BF00049FB0146B0FBF4F06FF01802504301EBE3
:100C0000800005EB0010B0FBF4F000F0F002B1FB47
:100C1000F4F002EB0012B1FBF4F06FF0180358434C
:100C200001EB800005EB0010B0FBF4F000F00F00CA
:100C3000104480B2B060BDE8F081FA195B41FFF763
:100C400021FB0146B0FBF4F00201B1FBF4F06FF0C0
:100C50001803584301EB800005EBC000B0FBF4F033
:100C600000F0F80002EB4002B1FBF4F0584301EB56
:100C7000800005EBC000B0FBF4F000F00700D7E700
:100C800010B5044A0021044800F0AAFB034948605B
:100C900010BD0000FC2B0008091D0008000000200A
:100CA00000B587B018216846FFF736FB0420FFF730
:100CB00011FE8020FFF70EFE0120FFF70BFE084813
:100CC0004FF400510A048261009101210022CDE914
:100CD0000112CDE903216946FFF714FE07B000BDFC
:100CE0000008024010B58EB01C216846FFF714FBC7
:100CF000182107A8FFF710FB1F48016841F01001F9
:100D00000160006800F010000D901B481438016865
:100D100041F0010101600068002400F001000D9025
:100D20004FF4C0600790022008900320CDE9090429
:100D30000720CDE90B4007A91048FFF7E3FD4FF46A
:100D4000E130CDE900040C200294CDE90340059484
:100D500006940B4C69462046FFF7EAFE206920F412
:100D600090402061606920F02A006061E06840F4F2
:100D70000050E0600EB010BD443802400000024058
:100D800000100140FEE7FEE730B500F00703C3F1B5
:100D90000704042C00D90424181D072801D20023BD
:100DA00000E0DB1E012505FA04F0401E08409840D3
:100DB0009D406D1E1540284330BD00000449096860
:100DC000044A01F0F0010909515CC8407047000075
:100DD00008380240202C000804490968044A01F43C
:100DE000E05102EB91210978C84070470838024071
:100DF000302C000804490968044A01F4604102EB00
:100E000051310978C840704708380240302C00083A
:100E10000748006810F00C01064807D0042904D0E8
:100E2000082903D1082000F009B8034870470000E2
:100E3000083802400024F40040787D0110B5104AC3
:100E400004460020116811F480030E4903D0B3F565
:100E5000800F00D10C49082C11D1106800F03F0020
:100E6000B1FBF0F01168C1F3881148431168012209
:100E700001F4403102EB11414900B0FBF1F010BD2B
:100E8000043802400024F40040787D0110B54FF092
:100E9000E020006901F0FCFC012803D0BDE810400F
:100EA00001F02ABA10BD000070B52E48016821F08B
:100EB000070141F005010160016801F00701052902
:100EC000FAD12949086840F4804008602748026840
:100ED00042F4803202600268C2F34042002AFAD033
:100EE000224A234B121D1468224D2C4023431360C9
:100EF000136823F440331360026842F0807202608A
:100F00000268C2F34062002AFAD04868C0F3803019
:100F10000028FAD015480830016821F0F00101607E
:100F2000016821F4E05141F4A0510160016821F40D
:100F3000604141F400410160016821F0030141F08A
:100F400002010160016801F00C010829FAD10A4888
:100F5000FFF784FD0F20FFF73FFA002801D072B69B
:100F6000FEE770BD003C02400070004000380240C7
:100F7000195440000080BFFF007A030A024801684C
:100F800041F470010160704788ED00E00148FFF70F
:100F9000A8BB0000A000002010B5064C206910F08E
:100FA000010F05D004A000F029F96FF001002061C5
:100FB00010BD00000010004054494D36E6ADA3E5D9
:100FC0009CA8E8BF90E8A18C2CE4BC98E58588E754
:100FD000BAA7E4B8BA3A360D0A00000010B586B0D8
:100FE00014216846FFF798F91020FFF77FFC194895
:100FF00000680022C0F302200621FFF7C5FE01466B
:10100000362000F010F9362000F000F942F2CF004F
:10101000ADF800000020019042F20F700E4C0290DB
:1010200069462046FFF720FD206820F08000206000
:10103000606820F070006060A06820F08000A06010
:10104000E06840F00100E060206840F001002060AE
:1010500006B010BD0CED00E00010004010B5064CCD
:10106000206910F0010F05D004A000F0C7F86FF060
:101070000100206110BD00000014004054494D37AC
:10108000E6ADA3E59CA8E8BF90E8A18C2CE4BC9851
:10109000E58588E7BAA7E4B8BA3A340D0A0000003B
:1010A00010B586B014216846FFF736F92020FFF707
:1010B0001DFC194800680022C0F302200421FFF73C
:1010C00063FE0146372000F0AEF8372000F09EF8AE
:1010D00042F2CF00ADF800000020019042F20F7004
:1010E0000E4C029069462046FFF7BEFC206820F0B7
:1010F00080002060606820F070006060A06820F0D0
:101100008000A060E06840F00100E060206840F0EE
:101110000100206006B010BD0CED00E0001400409E
:10112000F0B50268294C2A4D2A4E2B4F2B4B4FF01D
:10113000804CA04209D0604507D0A84205D0B042FB
:1011400003D0B84201D0984204D122F0700E4A6810
:1011500042EA0E02A0421BD0604519D0A84217D027
:10116000B04215D0B84213D0984211D01C4DA842BD
:101170000ED01C4DA8420BD01B4DA84208D01B4DD1
:10118000A84205D01A4DA84202D01A4DA84203D158
:1011900022F44075CA682A434D6922F080022A432E
:1011A00002608A68C2620A688262A04201D09842E4
:1011B00001D109690163012141610169C90703D0B6
:1011C000016921F001010161F0BD00000000014052
:1011D0000004004000080040000C004000040140F2
:1011E0000040014000440140004801400018004018
:1011F000001C004000200040FEE70000014A0249B8
:1012000000F040B83D1300089C000020002809DBD6
:1012100000F01F02012191404009800000F1E02010
:10122000C0F8001170470907090E002804DB00F11F
:10123000E02080F80014704700F00F0000F1E0207B
:1012400080F8141D70470907090E002804DB00F11F
:10125000E02080F80014704700F00F0000F1E0205B
:1012600080F8141D704702E008C8121F08C1002A48
:10127000FAD170477047002001E001C1121F002A17
:10128000FBD170472DE9F04116460F460446002574
:1012900003E03946B047641C6D1C20780028F8D163
:1012A0002846BDE8F081000010B504460E4894B011
:1012B0000021026842F004020260006800F00400AD
:1012C00012900A480090601ECDE901014FF6FF70B0
:1012D000CDE903016846FFF759F96846FFF784F93D
:1012E0000348046014B010BD4038024000080040BC
:1012F0009800002070B5054600244FF47A7603E08C
:10130000304600F005F8641CAC42F9D370BD000013
:10131000094910B50A684FF6FF7392B29B1A06E0AE
:101320000C68944203D20C681C44844203D20C68BB
:10133000A41A8442F4D310BD24080040044AC1B268
:1013400051601168C1F3C0110029FAD07047000044
:1013500000100140FFF726F8FFF76AFAFFF7A4FD37
:10136000FFF79EFCFFF7BEFCFFF738FEFFF798FE85
:10137000A820FFF799FF00F005F8FFF781FC00F0C7
:1013800013F8FEE7EFF3058010B16FF0050070472A
:101390000448016811B14FF0FF307047012101602E
:1013A000002070476800002010B5EFF3058010B1F1
:1013B0006FF0050010BD08480168012902D04FF008
:1013C000FF3010BD054A002182F8141D0221016082
:1013D00000F09AFE002010BD680000200BE000E045
:1013E0002DE9FF414FEA01034FF00005EFF30581BE
:1013F000039549BB40B38027182100244AB31668DF
:1014000006B1344696691EB13146761E382E02D298
:101410001679F60703D0002004B0BDE8F0815669C4
:1014200006B1B708D2F808C0BCF1000F0DD0D568DE
:101430005C2D18D312693AB136B18DE806103A46E0
:10144000214601F0FAF903900DE0D6685EB9126901
:101450004AB903AACDE90012BAB2214601F0C0F997
:10146000012800D003950398D6E700002DE9F0414C
:10147000134C0F460546E6682068001D00F060FC2E
:10148000681C07D137B12168BDE8F0410D48091D3E
:1014900000F0A6BC20683544B5424560216805D2FD
:1014A000A06BBDE8F041091D00F082BC606B091D16
:1014B00000F07EFCA06A854200D2A562BDE8F08102
:1014C00018000020D80500202DE9F041054600F065
:1014D00093FC2D4CA068401CA06020682B4F10B1DD
:1014E000606930B32BE02560A068012827D1002671
:1014F00006EB860007EB800000F04CFC761C382ED3
:10150000F6D3234800F046FC2148143000F042FC9A
:101510001F48283000F03EFC1D483C3000F03AFCEB
:101520001B48503000F036FC194860631430A0634B
:1015300005E02068E96AC06A884200D82560606AD0
:10154000401C60626864E86A2169884200D92061B1
:1015500000EB800007EB8000291D00F041FC00F04B
:101560006BFC606900280CD02068E96AC06A884278
:1015700007D208494FF080500860BFF34F8FBFF388
:101580006F8FBDE8F08100001800002028010020C6
:101590008805002004ED00E038B500F02DFC104C6B
:1015A0002068C8B90F4800F0F5FB0E48143000F071
:1015B000F1FB0C48E060143020610A4B0020F03B46
:1015C000009003F1500210210A2000F0ABFE2060D1
:1015D00010B105A100F0B2FCBDE8384000F02CBC11
:1015E00054000020DC060020546D72510000000001
:1015F00030B4026C0B46002A0BD0C1681144C160A4
:101600008468A14201D30168C16030BC1846FEF76E
:101610006ABE30BC70472DE9F041856B1746044621
:101620000026026C82B1C7B1E068FEF75CFEE1689B
:10163000206C091AE1602268914202D2A168081A5E
:10164000E060022F16D017E02068A8B9A06801F06A
:1016500097F906460020A0600EE06068FEF743FEA2
:10166000216C606808446060A168884204D32068E7
:10167000606001E005B16D1E6D1CA5633046BDE8DC
:10168000F08110B5044690F8590058B101280CD0EB
:1016900002280FD0502080F31188BFF34F8FBFF383
:1016A0006F8FFEE7206B00F0DBFB2046BDE81040AB
:1016B00000F0D6BB10BD000010484FF47051420737
:1016C00006D0C01D0D4920F00700411AC1F5705128
:1016D0000B4A00230144C2E900030839183A21F0FB
:1016E000070111604B600B600B1AC0E90013936097
:1016F0004FF000405360506170470000BC0D002067
:1017000084000020144E154CA6F29C474FF08058E0
:10171000DFF84C9012E000BF00F06EFBF068C56887
:10172000281D00F00DFBA068401EA0606068401EF0
:10173000606000F081FB2846FFF7A3FF6068002887
:10174000EAD138680128F9D9C9F80080BFF34F8F72
:10175000BFF36F8FF2E70000C405002018000020DF
:1017600004ED00E070B51D46049C51B1C4F80020A2
:10177000C4E90F010121204600F008FE84F84C5016
:1017800070BD2460F4E700002DE9F05F8846DDE9D4
:101790000B941546834691009A460A9EA522206B1B
:1017A000FEF7B3FD6FF00301206B01EB85010844E8
:1017B00020F00707780707D0502080F31188BFF387
:1017C0004F8FBFF36F8FFEE70025B8F1000F0FD0EA
:1017D0005FF00000221818F8001082F8341018F892
:1017E000001011B1401C1028F4D384F8435001E0DC
:1017F00084F83450382E00D33726E662C4E91365E6
:10180000201D00F0D2FA04F1180000F0CEFA246195
:10181000C6F138006462A061656584F8585052468C
:101820005946384600F05AFA2060B9F1000F01D04D
:10183000C9F80040BDE8F09F30B5114900E01146FD
:101840000A688242FBD34B685C18844203D140682B
:1018500018444860084643681C18944209D1084C53
:10186000183C2468A24209D052681A4442600A68AF
:1018700012680260814200D0086030BD0460F9E760
:101880008400002070B5002441600B4D006191423E
:1018900006D8D11A8269914206D2011D286907E053
:1018A0009A4203D2994201D3012403E0011DE86862
:1018B00000F07EFA204670BD5400002010B50446AA
:1018C00000F09AFAA06B28B15FF0000400F0B4FABF
:1018D000204610BD0124F9E730B589B03C4D6EE0DB
:1018E0000498002806DADDE90601059A9047049875
:1018F000002864DB069C606910B1201D00F020FA0E
:1019000003A800F0D7F8024604980A2857D2DFE867
:1019100000F00505052D334A05052D3394F8280000
:1019200040F0010084F828000599A069059B014456
:101930002046FFF7A7FF68B3216A2046884794F83E
:10194000280040073BD5002000900598A16900239E
:1019500042181946204601F01DF9D8B9502080F3ED
:101960001188BFF34F8FBFF36F8FFEE714F8280F76
:1019700020F00100207022E094F8280040F00100DF
:1019800084F828000598A06128B1811813462046E4
:10199000FFF778FF13E0502080F31188BFF34F8FDB
:1019A000BFF36F8FFEE794F82800810703D4204629
:1019B00000F056FA03E020F0010084F8280000222D
:1019C00004A9286800F036FE002889D109B030BD8E
:1019D000540000202DE9FC410F46054600F0D8FBDD
:1019E00001A800F067F80446019818B101F040F82A
:1019F000BDE8FC81254EAFB130690068D0B3002747
:101A0000291B3A46306800F0ADFA01F031F80028A1
:101A1000EED11F494FF080500860BFF34F8FBFF3E6
:101A20006F8FE5E7A542EBD801F022F8F068274672
:101A3000C068C468201D00F083F994F828004107AD
:101A400019D5A0692B4641193A462046FFF71AFFDF
:101A5000A8B100200346014600902A46204601F026
:101A600099F860B9502080F31188BFF34F8FBFF30E
:101A70006F8FFEE707E020F0010084F82800216A5C
:101A800020468847B4E70127BAE700005400002049
:101A900004ED00E00648416B096829B1416BC96853
:101AA000C9684968816270474FF0FF31FAE700006A
:101AB0001800002070B5054600F0F8FE064E0446FA
:101AC000B068844203D200F009F8012000E0002051
:101AD00028602046B46070BD54000020F8B5194D50
:101AE00020E0C068C4680668201D00F029F9216A5A
:101AF0002046884794F82800400713D5A069304451
:101B0000B04206D924616060211DE86800F050F9F8
:101B100008E000200346014600903246204601F0CE
:101B200039F838B1E86801680029DAD12969C5E9CE
:101B30000310F8BD502080F31188BFF34F8FBFF31F
:101B40006F8FFEE75400002008484068401C4FF0AB
:101B5000500080F3118804D0BFF34F8FBFF36F8F15
:101B6000FEE7BFF34F8FBFF36F8FFEE78C000020BF
:101B7000074CE068016841B1C0680021D0F800005E
:101B8000FFF728FFFFF7A8FEF3E701210020F7E7A2
:101B9000540000202DE9F041044600F02DF994F99D
:101BA000455004F1240609E0606A48B1304600F06F
:101BB00027FF08B100F06EFA6D1E6DB2002DF3DC48
:101BC0004FF0FF3684F8456000F036F900F014F964
:101BD00094F9445004F1100709E0206948B13846EF
:101BE00000F00EFF08B100F055FA6D1E6DB2002D29
:101BF000F3DC84F84460BDE8F04100F01DB900005A
:101C00002DE9F0410546002700F0C2FA324E306857
:101C100008B9FFF751FD706905424ED1C5B30835CB
:101C200068070ED005F00700C0F1080005446807FA
:101C300007D0502080F31188BFF34F8FBFF36F8F11
:101C4000FEE72DB37068854237D823481830014627
:101C50000C6801E020460C466168A94202D2216866
:101C60000029F7D131688C4227D0076821680160CC
:101C700060680837411B10290FD96019420708D046
:101C8000502080F31188BFF34F8FBFF36F8FFEE7B3
:101C900013E041606560FFF7CFFD61687068401A2E
:101CA0007060B268904200D2B06070690143002059
:101CB000C4E90001F068401CF06000F0D9FE78072C
:101CC00007D0502080F31188BFF34F8FBFF36F8F81
:101CD000FEE73846BDE8F0816C00002010B5031F18
:101CE0004FF080741C601B1F21F001011960191F47
:101CF000044B0B6014390A60091F6FF0020244386C
:101D00000A6010BD491B00081CB507491920CDE920
:101D100000010023802205A1084800F061FDBDE814
:101D20001C40002000F066B9000000204C454454DF
:101D30006F67676C655F5461736B00006D08000826
:101D4000D0E9013201699A60D0E901235A604A68FA
:101D5000824201D182684A60002202610868401E06
:101D60000860086870470000034B036003F15C00E3
:101D7000086080201060704704070020044B036057
:101D800003F15C0008604FF4807010607047000041
:101D90006009002000F108014FF0FF32C0E9011294
:101DA000C16001610021016070470021016170473D
:101DB00030B50B685A1C02D000F1080202E002693B
:101DC00004E02246546825689D42FAD953684B6066
:101DD00099608A60516008610168491C016030BDEA
:101DE00042684A6093688B609368596091600861AB
:101DF0000168491C01607047502080F31188BFF3CF
:101E00004F8FBFF36F8F0A494868401C4860012814
:101E10000CD10848006810F0FF0F07D0502080F365
:101E20001188BFF34F8FBFF36F8FFEE7704700003D
:101E30008C00002004ED00E00849486828B1401EED
:101E4000486001D180F311887047502080F31188D9
:101E5000BFF34F8FBFF36F8FFEE700008C000020B1
:101E600070B500282AD0164DA0F108046068696991
:101E7000084207D1502080F31188BFF34F8FBFF382
:101E80006F8FFEE722683AB1502080F31188BFF3CC
:101E90004F8FBFF36F8FFEE78843606000F078F9E3
:101EA00060686968084468602046FFF7C5FC2869D7
:101EB000401C2861BDE8704000F0DABD70BD000034
:101EC0006C0000204FF0E020002101618161054994
:101ED0004FF47A720968B1FBF2F1491E41610721A2
:101EE000016170471400002010B5FEF7B5F91149E3
:101EF00010280ED300F1E02090F8F0030A78904209
:101F000007D2502080F31188BFF34F8FBFF36F8F3C
:101F1000FEE709480068896800F4E060884207D954
:101F2000502080F31188BFF34F8FBFF36F8FFEE710
:101F300010BD00008C0000200CED00E010B5084B37
:101F4000002200BF53F832401CB1521C082AF9D3BA
:101F500010BD43F8321003EBC201486010BD000011
:101F6000E800002070B515460E460446FFF744FF12
:101F700094F944100020491C01D184F8440094F9DC
:101F80004510491C01D184F84500FFF755FFA06BAF
:101F900028B92A46314604F1240000F099F8204679
:101FA000BDE87040FFF7F6BD10B5020014D00F4831
:101FB000006B38B1502080F31188BFF34F8FBFF30F
:101FC0006F8FFEE700F0E4F800211046FFF74EFAAD
:101FD00000F04EFD002807D105494FF08050086001
:101FE000BFF34F8FBFF36F8F10BD000018000020AC
:101FF00004ED00E070B50546FFF7FEFE1E4C05B986
:102000002568281DFFF79CFEA86A18B105F1180085
:10201000FFF796FE606A401C60622068854207D127
:10202000291D1648FFF7DCFE6068401C606007E071
:10203000A068401EA0602846FFF723FBFFF72AFD9B
:10204000FFF7FAFE6069002814D02068854211D19C
:10205000206B38B1502080F31188BFF34F8FBFF34E
:102060006F8FFEE706494FF080500860BFF34F8F37
:10207000BFF36F8F70BD000018000020C405002062
:1020800004ED00E002490A6A0260C96841607047D5
:102090001800002001490120C86170471800002085
:1020A00010B50C4650B1094909681831FFF780FE98
:1020B0002046BDE810400121FFF7D8B9502080F339
:1020C0001188BFF34F8FBFF36F8FFEE7180000201A
:1020D00070B514460D4668B10A4909681831FFF712
:1020E0007FFE0CB14FF0FF3521462846BDE8704019
:1020F000FFF7BCB9502080F31188BFF34F8FBFF3B7
:102100006F8FFEE71800002030B587B000240394DD
:1021100005AA04A903A80494FFF726FEDDE903013C
:102120000094CDE90110002315A11748059A00F08D
:1021300084FB164D0028E8621FD000F0FBFC01284C
:1021400009D0401C19D1502080F31188BFF34F8F64
:10215000BFF36F8FFEE7502080F31188BFF34F8FDE
:10216000BFF36F8F4FF0FF30A86201206861EC6011
:1021700007B0BDE8304000F045B807B030BD000002
:1021800049444C45000000000517000818000020D5
:102190000248016B491C01637047000018000020D1
:1021A000164810B5016B11B10121C16110BD0021AC
:1021B000C1610169124A01E0B9B1491E01EB810315
:1021C00052F82330002BF7D001EB810302EB83029E
:1021D00002F1080453685B685360A34201D15B6855
:1021E0005360DA680260016110BD502080F31188ED
:1021F000BFF34F8FBFF36F8FFEE700001800002082
:10220000280100201CB537480168374A914207D1A0
:10221000502080F31188BFF34F8FBFF36F8FFEE71D
:1022200000683149491E884207D1502080F3118847
:10223000BFF34F8FBFF36F8FFEE72C4908780190F3
:10224000FF20087008788DF800009DF800009DF8C8
:10225000002000F0F000904207D0502080F3118859
:10226000BFF34F8FBFF36F8FFEE79DF80000204C48
:1022700000F0500020700720A06005E09DF80020CD
:1022800052008DF80020401E9DF800201206F5D463
:10229000A060032807D0502080F31188BFF34F8F30
:1022A000BFF36F8FFEE74FF44070A0600198087095
:1022B0000C482030016841F470010160016841F070
:1022C00070410160FFF7FEFD00206060FDF78CFFAC
:1022D0000848016841F040410160FDF771FF0020AE
:1022E0001CBD000000ED00E071C20F4100E400E001
:1022F0008C00002034EF00E010B5502080F31188EE
:10230000BFF34F8FBFF36F8F00F0D6FA18B10449B7
:102310004FF080500860002080F3118810BD00004D
:1023200004ED00E038B5049D18B153B1CAB181B1D4
:1023300020E0502080F31188BFF34F8FBFF36F8FE1
:10234000FEE7502080F31188BFF34F8FBFF36F8FEC
:10235000FEE7502080F31188BFF34F8FBFF36F8FDC
:10236000FEE739B1502080F31188BFF34F8FBFF3E0
:102370006F8FFEE750241C46012384F846302B461D
:102380000094FFF7EFF9204638BD000070B50D4608
:10239000040025D0FFF730FDD4E90F20216802FBAF
:1023A0000011A1600021A163216861600A46D4E99F
:1023B0000F01401E00FB0121E16021464FF0FF307C
:1023C00001F8440F487004F110008DB1FFF7E2FCF2
:1023D00004F12400FFF7DEFCFFF72EFD012070BDA5
:1023E000502080F31188BFF34F8FBFF36F8FFEE74C
:1023F00021690029F0D000F003FB0028ECD004494B
:102400004FF080500860BFF34F8FBFF36F8FE3E74B
:1024100004ED00E02DE9FF4782B01D468A464FF0EB
:102420000008040003D0BAF1000F08D011E05020DA
:1024300080F31188BFF34F8FBFF36F8FFEE7206CDF
:1024400038B1502080F31188BFF34F8FBFF36F8FE7
:10245000FEE7022D0AD1E06B012807D0502080F35F
:102460001188BFF34F8FBFF36F8FFEE700F010FAB4
:102470003F4F4FF000094FF0805648B9049838B1EB
:10248000502080F31188BFF34F8FBFF36F8FFEE7AB
:10249000FFF7B2FCA06BE16B884207D3022D05D099
:1024A0000498D0B1B8F1000F1AD01EE02A46514668
:1024B0002046FFF7B0F8616A19B104F1240000F07A
:1024C0009FFA20B13E60BFF34F8FBFF36F8FFFF7CE
:1024D000B3FC012006B0BDE8F087FFF7ADFC22E0B9
:1024E0006846FFF7CFFD4FF00108FFF7A5FCFFF7A7
:1024F0004FFEFFF781FC94F94400401C01D184F8A1
:10250000449094F94500401C01D184F84590FFF7B0
:1025100093FC04A9684600F029F930B12046FFF782
:1025200039FB00F0A5FA0020D4E7FFF765FCA06BAB
:10253000E16B884213D1FFF77FFC04F1100004998E
:10254000FFF7AEFD2046FFF725FB00F091FA0028CB
:102550009ED13E60BFF34F8FBFF36F8F98E7FFF7B9
:102560006BFC2046FFF716FB00F082FA90E70000B4
:1025700004ED00E02DE9F0471F469046894604002F
:1025800003D0B9F1000F08D011E0502080F311887A
:10259000BFF34F8FBFF36F8FFEE7206C38B1502031
:1025A00080F31188BFF34F8FBFF36F8FFEE7022FC9
:1025B0000AD1E06B012807D0502080F31188BFF3C7
:1025C0004F8FBFF36F8FFEE7FFF78EFC5020EFF3C6
:1025D000118680F31188BFF34F8FBFF36F8FA06B0D
:1025E000E16B884206D3022F04D0002086F31188C5
:1025F000BDE8F08794F94550A06B3A46494620461D
:10260000FFF709F8681C04D06D1C84F845500120C0
:10261000ECE7606A0028FAD004F1240000F0F0F939
:102620000028F4D0B8F1000FF1D00121C8F8001053
:10263000EDE700002DE9F747002683B08A46040045
:1026400003D0BAF1000F08D011E0502080F31188B8
:10265000BFF34F8FBFF36F8FFEE7206C38B1502070
:1026600080F31188BFF34F8FBFF36F8FFEE700F049
:102670000FF9DFF8F4804FF000094FF0805748B9A8
:10268000059838B1502080F31188BFF34F8FBFF306
:102690006F8FFEE7FFF7B0FBA56BC5B15146204633
:1026A000FEF7A6FF6D1EA563206950B104F110006E
:1026B00000F0A6F928B1C8F80070BFF34F8FBFF340
:1026C0006F8FFFF7B9FB012006B0BDE8F0870598D2
:1026D00008B11EB106E0FFF7AFFB27E06846FFF741
:1026E000D1FC0126FFF7A8FBFFF752FDFFF784FBA3
:1026F00094F94400401C01D184F8449094F94500B9
:10270000401C01D184F84590FFF796FB05A9684667
:1027100000F02CF8002820460AD0FFF73BFA00F022
:10272000A7F92046FFF7CAF80028B3D00020CBE76E
:10273000FFF7C4F890B104F124000599FFF7B0FC4D
:102740002046FFF727FA00F093F90028A2D1C8F835
:102750000070BFF34F8FBFF36F8F9BE72046FFF7EB
:1027600019FA00F085F995E704ED00E02DE9F04154
:102770000C46050011D0C4B1FFF73EFB174BDA68D9
:102780006E682068911B471C17D02F681B6A9F42F8
:1027900019D0964217D8012410E0502080F31188F8
:1027A000BFF34F8FBFF36F8FFEE7502080F3118888
:1027B000BFF34F8FBFF36F8FFEE70024FFF73CFBA3
:1027C0002046BDE8F081884205D9401A206028469D
:1027D000FFF758FCF1E700202060DCE7180000203C
:1027E0002DE9FF5F8346DDE90E87994616468A4646
:1027F0009000FFF705FA05001CD05C20FFF700FAF7
:10280000040014D00020256384F85900CDE902406B
:10281000CDE900874B46324651465846FEF7B4FF95
:102820002046FEF751FE012004B0BDE8F09F284687
:10283000FFF716FB4FF0FF30F6E7F0B585B0DDE9A6
:102840000B640A9DA6B1DCB15C27009726630226C3
:1028500084F85960002604AFCDE90246CDE900575F
:10286000FEF792FF2046FEF72FFE049805B0F0BD5C
:10287000502080F31188BFF34F8FBFF36F8FFEE7B7
:10288000502080F31188BFF34F8FBFF36F8FFEE7A7
:102890000548416919B1006B18B10020704701204B
:1028A0007047022070470000180000200148C068EF
:1028B00070470000180000202DE9F0412E4C002741
:1028C000206B28B1A069401CA0613846BDE8F081AA
:1028D000E668761CE66013D1606B006838B1502062
:1028E00080F31188BFF34F8FBFF36F8FFEE7606BEC
:1028F000A16B6163A063206A401C2062FFF7CAF8E5
:10290000A06ADFF87880864209D3606B0068A0B1C6
:10291000606BC068C5686868864211D2A062206892
:10292000C06A00EB800158F82100012800D9012776
:10293000E0690028C9D00127C7E74FF0FF30EDE775
:10294000281DFFF7FDF9A86A18B105F11800FFF777
:10295000F7F9E86A2169884200D9206100EB80011B
:1029600008EB8100291DFFF73BFAE86A2168C96A74
:102970008842CAD30127C8E7180000202801002098
:1029800070B504004FF0000133D01B4D286884421D
:1029900007D0502080F31188BFF34F8FBFF36F8FA4
:1029A000FEE7206D38B1401E2065E36CE26A9A4272
:1029B0001FD040B11DE0502080F31188BFF34F8F2E
:1029C000BFF36F8FFEE7201DFFF7BAF9E06CE062FE
:1029D000C0F13800A061E06A2969884200D9286105
:1029E000064900EB800001EB8000211DFFF7F8F99C
:1029F0000121084670BD00001800002028010020B9
:102A000070B5C068C46854B104F118000646FFF7F9
:102A100097F9144D286B50B13146134815E05020FA
:102A200080F31188BFF34F8FBFF36F8FFEE7201D38
:102A3000FFF786F9E06A2969884200D928610B49C5
:102A400000EB800001EB8000211DFFF7C9F9E06A6F
:102A50002968C96A884202D90120E86170BD002056
:102A600070BD000018000020B005002028010020E3
:102A70002DE9F0472C4D00242746286B38B1FFF78D
:102A8000BBF9286B401E2863286B40B146E05020FC
:102A900080F31188BFF34F8FBFF36F8FFEE7A968F4
:102AA000224E0120D1B3A6F5916980463068E0B18D
:102AB000F068C46804F11800FFF742F9201DFFF721
:102AC0003FF9E06A2969884200D9286100EB80015A
:102AD00009EB8100211DFFF783F9E06A2968C96AC3
:102AE0008842E3D3C5F81C80E0E70CB1FEF7D2FFC3
:102AF000AC694CB14FEA0806FFF7DEFE00B1EE61AB
:102B0000641EF9D10020A861E86938B1084901279D
:102B100038070860BFF34F8FBFF36F8FFFF78CF953
:102B20003846BDE8F087000018000020B0050020FE
:102B300004ED00E010B586B0FEF72EFD114C2068C4
:102B4000B8B100200390049005AA04A903A8FFF7D8
:102B500015F9DDE9032102208DE8070000230AA111
:102B60000B48059AFFF769FE606010B106B00120BE
:102B700010BD502080F31188BFF34F8FBFF36F8FCC
:102B8000FEE7000054000020546D7220537663006D
:102B9000711B00082DE9FF411E46134602000A9DE5
:102BA0004FF0000016D0144C2768002F0FD0CDE94D
:102BB00000130292062917DAFFF76AFE02284FF087
:102BC00000030FD0002269462068FFF723FC04B001
:102BD000BDE8F081502080F31188BFF34F8FBFF321
:102BE0006F8FFEE72A46EEE70023324669463846F5
:102BF000FFF7C0FCEBE7000054000020382C000871
:102C000000000000000000000000000000000000C4
:102C1000000200001800000000000000000000009A
:102C2000000000000000000001020304060708097C
:102C30000000000001020304537461727454617354
:102C40006B000000642C000800000020A0000000C1
:102C500066120008042D0008A0000020204D00008E
:102C600076120008000000000000000001000000D3
:102C700010000000000000000024F400000000002C
:102C80000000000000000000000000000000000044
:102C90000000000000000000000000000000000034
:102CA0000000000000000000000000000000000024
:102CB0000000000000000000000000000000000014
:102CC0000000000000000000000000000000000004
:102CD00000000000000000000000000000000000F4
:102CE00000000000000000000000000000000000E4
:102CF00000000000AAAAAAAA00000000000000002C
:042D000000000000CF
:040000050800018965
:00000001FF
