:020000040800F2
:10000000C04D002061020008E7100008CB0C00087A
:10001000E51000082D0800084D140008000000003D
:10002000000000000000000000000000A101000826
:100030002F08000800000000FD010008E111000881
:100040007B0200087B0200087B0200087B0200089C
:100050007B0200087B0200087B0200087B0200088C
:100060007B0200087B0200087B0200087B0200087C
:100070007B0200087B0200087B0200087B0200086C
:100080007B0200087B0200087B0200087B0200085C
:100090007B0200087B0200087B0200087B0200084C
:1000A0007B0200087B0200087B0200087B0200083C
:1000B0007B0200087B020008E11200087B020008B6
:1000C0007B0200087B0200087B0200087B0200081C
:1000D0007B0200087B0200087B0200087B0200080C
:1000E0007B0200087B0200087B0200087B020008FC
:1000F0007B0200087B0200087B0200087B020008EC
:100100007B0200087B0200087B0200087B020008DB
:100110007B0200087B020008ED1200083113000882
:100120007B0200087B0200087B0200087B020008BB
:100130007B0200087B0200087B0200087B020008AB
:100140007B0200087B0200087B0200087B0200089B
:100150007B0200087B0200087B0200087B0200088B
:100160007B0200087B0200087B0200087B0200087B
:100170007B0200087B0200087B02000800000000F0
:100180007B0200087B020008DFF810D000F03CFB87
:1001900000480047A11E0008AFF30080C04D0020BA
:1001A0002C4B19680868B0E8F04F80F30988BFF35A
:1001B0006F8F4FF0000080F311887047000000003F
:1001C00008480068006880F308884FF0000080F35A
:1001D000148862B661B6BFF34F8FBFF36F8F00DF35
:1001E00000BF00BF08ED00E0DFF80C00016841F43B
:1001F00070010160704700BF88ED00E0EFF30980F7
:10020000BFF36F8F134B1A681EF0100F08BF20ED5D
:10021000108A20E9F04F106009B44FF0500080F3CD
:100220001188BFF34F8FBFF36F8F02F0E7FD4FF0E0
:10023000000080F3118809BC19680868B0E8F04F25
:100240001EF0100F08BFB0EC108A80F30988BFF3CE
:100250006F8F704710000020EFF30580704700009B
:100260000648804706480047FEE7FEE7FEE7FEE750
:10027000FEE7FEE7FEE7FEE7FEE7FEE7D112000835
:10028000890100082DE9F05F0546002092469B4653
:1002900088460646814640241BE02846414647469C
:1002A000224600F01AFA53465A46C01A914110D31A
:1002B00011461846224600F001FA2D1A67EB010894
:1002C0004F4622460120002100F0F8F917EB000903
:1002D0004E41201EA4F10104DFDC484631462A4687
:1002E0004346BDE8F09F40EA01039B0703D009E0C5
:1002F00008C9121F08C0042AFAD203E011F8013B12
:1003000000F8013B521EF9D27047D2B201E000F86A
:10031000012B491EFBD270470022F6E710B51346A9
:100320000A4604461946FFF7F0FF204610BD421C5E
:1003300010F8011B0029FBD1801A7047034611F801
:10034000012B00F8012B002AF9D1184670472DE93E
:10035000FE4F804681EA0300C00F0C46009021F05A
:10036000004123F00045B8EB0200A94105D2404608
:10037000214690461C460B46024623F0004010439F
:1003800047D0270DC7F30A00C3F30A510290401A61
:10039000019040286BDAC3F3130040F4801B0098EF
:1003A000924620B10023D2EB030A63EB0B0B0198BA
:1003B0005946C0F14002504600F080F906460D460D
:1003C00050465946019A00F098F910EB0800614137
:1003D000002487EA115284EAE7731A4340D0009A56
:1003E00062B3019A012A4FEA075215DC001B61EB48
:1003F00002014FF0004202EA0752CDE90042001C20
:1004000041F5801132462B4600F098F903B0BDE863
:10041000F08F40462146F9E7001B61EB0201001C0A
:1004200041F5801300185B412018A2F5001747EB37
:10043000030140EAD570B6196D4111E06D084FEA2D
:10044000360645EAC0754FEA0752001B61EB020110
:10045000001C41F5801149084FEA30000019514154
:1004600032462B4603B0BDE8F04F00F058B9009873
:10047000012240000023D0EB020263EBE0730098FE
:1004800021464FEAE074B8EB000061EB0401E9E7B4
:1004900083F000435BE781F0004158E72DE9FE4F10
:1004A00081EA030404F0004421F0004100944FF07D
:1004B000000B23F0004350EA01045ED052EA03042B
:1004C0005BD0C3F30A54C1F30A552C44A4F2F334AD
:1004D0000194A0FB0254C1F3130141F48011C3F352
:1004E000130343F4801301FB024400FB034E840A10
:1004F000970A44EA815447EA8357A4FB07680295A8
:100500008D0A05FB07854FEA932C04FB0C54270545
:10051000029D4FEA065847EA1637B5EB08056EEB21
:10052000070C870E920E47EA811742EA8312A7FB57
:100530000201B6EB0B0164EB00042B0D43EA0C3314
:100540005E1844EB1C50DA465146E7FB0201C5F346
:1005500013044FEA0B3343EA14534FEA0432019C6D
:1005600043EA0603A4F10C040294009CCDE900B414
:1005700000F0E4F803B0BDE8F08F00200146F9E791
:100580002DE9F04D81EA030404F0004B21F0004511
:1005900014464FF0000A23F0004150EA050220D033
:1005A00054EA01021DD0C5F30A570246C5F31303EE
:1005B000C1F31300C1F30A5640F4801543F48013CD
:1005C000A7EB0608101BD64608F2FD3873EB0500B2
:1005D00002D308F1010801E092185B41B8F1000F65
:1005E00003DA00200146BDE8F08D00204FF48011B1
:1005F000064684460EE0171B73EB050705D3121B56
:1006000063EB050306434CEA010C49084FEA30004E
:1006100092185B4150EA0107EDD152EA030012D073
:1006200082EA040083EA0501084305D0101BAB41B0
:1006300006D20122002306E000224FF0004302E030
:100640006FF0010253101AEB06004CEB085110EB4F
:100650000A0041EB0B01BDE8F04D00F060B800006E
:1006600030B5041E71F1000404DB4FF00044404239
:1006700064EB0101141E73F1000405DB1C464FF00E
:100680000043524263EB0403994208BF904230BDDD
:1006900030B50B46014600202022012409E021FA52
:1006A00002F59D4205D303FA02F5491B04FA02F54F
:1006B0002844151EA2F10102F1DC30BD202A04DB22
:1006C000203A00FA02F1002070479140C2F1200365
:1006D00020FA03F3194390407047202A04DB203AA4
:1006E00021FA02F00021704721FA02F3D040C2F152
:1006F00020029140084319467047202A06DBCB1799
:10070000203A41FA02F043EAE07306E041FA02F3CC
:10071000D040C2F12002914008431946704710B5FD
:10072000141E73F1000408DA401C41F10001921814
:100730005B411A4301D120F0010010BD2DE9F04DBD
:1007400092469B4611B1B1FA81F202E0B0FA80F212
:1007500020329046FFF7B2FF04460F4640EA0A00F7
:1007600041EA0B0153465A46084313D0114653EA57
:10077000010019D0C8F140025046FFF7AEFF054610
:100780000E46504659464246FFF798FF084305D0AB
:10079000012004E020463946BDE8F08D00200543E5
:1007A00046EAE0762C4337430A986305E40AA0EB57
:1007B00008000022FD0A44EA47540A3002D500200E
:1007C0000146E9E7010510196941DDE9084500190D
:1007D0006941BDE8F04DA2E7C1F30A52C1F313012C
:1007E00040F2FF3341F480119A4202DA00200146C0
:1007F000704740F233439A42A2F2334202DC524243
:10080000FFF76BBFFFF75ABF064C074D06E0E068E5
:1008100040F0010394E8070098471034AC42F6D347
:10082000FFF7B6FC7038000890380008FEE7704704
:1008300002488168027811448160704700000020FE
:100840000B4810B5016841F400710160016841F482
:1008500080610160016841F480710160032000F053
:100860009FF80F2000F006F800F050F8002010BDAF
:10087000003C024030B505461F4887B0002401689F
:1008800041F004010160006806A900F00400009036
:1008900001A800F097F80498A8B100F0B3F8400060
:1008A0001649174AB0FBF1F11648491E026040F2A2
:1008B000E732C0E90324C0E90114846100F0B4F810
:1008C000040003D015E000F09DF8E9E70D4800F0C2
:1008D00015F904000DD11E2000F034F8102D07D2B8
:1008E000002229461E2000F03BF80748056000E082
:1008F000012407B0204630BD4038024040420F007E
:1009000000080040A0000020040000200C4882B035
:10091000016841F480410160006800F4804000906B
:100920000748001F016841F0805101600068002203
:1009300000F0805000900F21901E02B000F010B81F
:1009400044380240002809DB00F01F0201219140D9
:100950004009800000F1E020C0F80011704700005D
:10096000F0B40E4B1B680C46C3F30223C3F107051A
:10097000042D00D90425191D072901D2002300E008
:10098000DB1E012606FA05F1491E214099409E40D2
:10099000761E16403143F0BC00F0ACBD0CED00E01B
:1009A000064900F0070208684FF6FF03184040EAC6
:1009B0000220034A10430860704700000CED00E07D
:1009C0000000FA050F2202600C4A136803F00303CB
:1009D0004360136803F0F0038360136803F4E0538B
:1009E000C36012684FF4E05303EAD2020261044884
:1009F000006800F0070008607047000008380240F7
:100A0000003C02400448054900680968044AC1F3F3
:100A10008221515CC84070470C0000200838024019
:100A2000683800087047704710B5040003D094F888
:100A30003D0010B107E0012010BD002084F83C000B
:100A4000204600F01EF8022084F83D00211D206899
:100A500000F090FC012084F8460084F83E0084F801
:100A60003F0084F8400084F8410084F8420084F894
:100A7000430084F8440084F8450084F83D000020D9
:100A800010BD704790F83D10012901D0012070473A
:100A9000022180F83D1000681149884214D0B0F15D
:100AA000804F11D00F4988420ED00F4988420BD099
:100AB0000E49884208D00E49884205D00D49884227
:100AC00002D00D49884204D1816801F0070106294E
:100AD00003D0016841F0010101600020704700006F
:100AE000000001400004004000080040000C0040ED
:100AF00000040140004001400018004090F83D1003
:100B0000012901D001207047022180F83D100168C1
:100B1000CA6842F00102CA6000681149884214D0D4
:100B2000B0F1804F11D00F4988420ED00E49884253
:100B30000BD00E49884208D00D49884205D00D4996
:100B4000884202D00C49884204D1816801F0070133
:100B5000062903D0016841F00101016000207047BF
:100B6000000001400004004000080040000C00406C
:100B700000040140004001400018004070472DE98A
:100B8000F04104460068C66805694FF00007A907F0
:100B900013D5B10711D5F91E016101202077206816
:100BA00080698007204602D0FFF7E8FF04E000F0EC
:100BB0007EF8204600F07CF82777680716D5700786
:100BC00014D521686FF004000861022020772068A6
:100BD000806910F4407F204602D0FFF7CFFF04E089
:100BE00000F065F8204600F063F82777280715D550
:100BF000300713D521686FF00800086104202077C2
:100C00002068C0698007204602D0FFF7B7FF04E0E4
:100C100000F04DF8204600F04BF82777E80616D58F
:100C2000F00614D521686FF01000086108202077C5
:100C30002068C06910F4407F204602D0FFF79EFF75
:100C400004E000F034F8204600F032F82777E80797
:100C500008D0F00706D021686FF001000861204637
:100C600000F028F8280608D5300606D521686FF070
:100C7000800008612046FFF7D5FE680608D570069B
:100C800006D521686FF040000861204600F01CF88E
:100C9000A8060AD5B00608D521686FF020000861C3
:100CA0002046BDE8F041FFF7BEBEBDE8F0817047C9
:100CB0007047000000680349884201D1FFF7B8BDC2
:100CC00070470000000800407047FEE700B587B09D
:100CD00018216846FFF720FB0948016841F001012F
:100CE00001600068002100F0010006900120CDE9BC
:100CF000000104906946034800F026F807B000BDE3
:100D00003038024000000240084D4FF400544FF4C8
:100D1000FA76696924EA010001F4005140EA0140D1
:100D2000A861304601F0D0F8F3E700000008024067
:100D3000044908B50A6802430A6009680140009145
:100D400008BD000030380240F0B50A680F2692FA5C
:100D5000A2F2B2FA82F303248AE001279F4015EA47
:100D600007027DD04D68012D01D0022D1BD18D6869
:100D7000876892FAA2FCBCFA8CFC4FEA4C0C04FA8D
:100D80000CFC27EA0C0792FAA2FCBCFA8CFC4FEA96
:100D90004C0C05FA0CF52F438760CD684768554326
:100DA00097432F4347600F69D0F80CC092FAA2F521
:100DB000B5FA85F54FEA450E04FA0EF52CEA050C56
:100DC00092FAA2F5B5FA85F56D00AF404CEA070C32
:100DD000C0F80CC04D68022D33D192FAA2F5B5FAD5
:100DE00085F5082D15D2D1F814C0056A92FAA2F73C
:100DF000B7FA87F7BF0006FA07F7BD4392FAA2F7E2
:100E0000B7FA87F7BF000CFA07FC45EA0C05056244
:100E100017E0D1F814E0476A150A95FAA5FCBCFA68
:100E20008CFC4FEA8C0C06FA0CFC95FAA5F5B5FA89
:100E300085F5AD0027EA0C070EFA05FE47EA0E0716
:100E400047624D68076892FAA2FCBCFA8CFC4FEA34
:100E50004C0C04FA0CFE27EA0E0792FAA2F200E00C
:100E600005E0B2FA82F2520095402F4307605B1C06
:100E70000A681546DA407FF470AF0020F0BD10B567
:100E8000044600F05BF9206000F02EF9606000F08D
:100E900039F9A060606800F043F9E06010BD00001F
:100EA00001490860704700000C0000207FB504462F
:100EB000C0680D460126C0F34030C0BBE9686868D1
:100EC000AA690843296911430843E16849F20C62A1
:100ED00091430843E060A868216921F4405101432F
:100EE00021616869616921F440710143616168466B
:100EF000FFF7C5FF0F48844208D00F4884420DD049
:100F00000E4884420AD00E48844201D1039906E07B
:100F10000C48844202D00C48844208D1029931B175
:100F20002B6823B100262046AA6900F00FF804B010
:100F3000304670BD001001400044004000480040B1
:100F400000140140004C0040005000402DE9F041E9
:100F500006461920A1FB00011F4600236424322508
:100F6000B2F5004F27D0BB0FBA00FFF78BF901464F
:100F7000B0FBF4F06FF01802504301EB800005EB7A
:100F80000010B0FBF4F000F0F002B1FBF4F002EB63
:100F90000012B1FBF4F06FF01803584301EB80002E
:100FA00005EB0010B0FBF4F000F00F00104480B22D
:100FB000B060BDE8F081FA195B41FFF763F90146C3
:100FC000B0FBF4F00201B1FBF4F06FF018035843EA
:100FD00001EB800005EBC000B0FBF4F000F0F8007E
:100FE00002EB4002B1FBF4F0584301EB800005EB4B
:100FF000C000B0FBF4F000F00700D7E700F028BA1B
:1010000000B587B018216846FFF786F90420FFF77E
:101010008FFE8020FFF78CFE0120FFF789FE084835
:101020004FF400510A048261009101210022CDE9B0
:101030000112CDE903216946FFF786FE07B000BD26
:101040000008024010B58EB01C216846FFF764F915
:10105000182107A8FFF760F91F48016841F0100147
:101060000160006800F010000D901B481438016802
:1010700041F0010101600068002400F001000D90C2
:101080004FF4C0600790022008900320CDE90904C6
:101090000720CDE90B4007A91048FFF755FE4FF494
:1010A000E130CDE900040C200294CDE90340059421
:1010B00006940B4C69462046FFF7F8FE206920F4A1
:1010C00090402061606920F02A006061E06840F48F
:1010D0000050E0600EB010BD4438024000000240F5
:1010E00000100140FEE7FEE704490968044A01F0E8
:1010F000F0010909515CC8407047000008380240FF
:101100005838000804490968044A01F4E05102EB28
:1011100091210978C84070470838024068380008B3
:1011200004490968044A01F4604102EB513109782D
:10113000C84070470838024068380008074800680F
:1011400010F00C01064807D0042904D0082903D167
:10115000082000F009B80348704700000838024032
:101160000024F40040787D0110B5104A04460020A8
:10117000116811F480030E4903D0B3F5800F00D13C
:101180000C49082C11D1106800F03F00B1FBF0F0C1
:101190001168C1F3881148431168012201F44031FC
:1011A00002EB11414900B0FBF1F010BD04380240E0
:1011B0000024F40040787D01ADF5167D684601F00D
:1011C00035FD694604A000F071F94FF47A742046A9
:1011D00001F0C4FCFBE7000025730D0A00000000CD
:1011E00010B54FF0E020006902F080F9012803D02B
:1011F000BDE8104001F0AEBE10BD000070B52E4835
:10120000016821F0070141F005010160016801F06A
:1012100007010529FAD12949086840F4804008608F
:101220002748026842F4803202600268C2F34042FA
:10123000002AFAD0224A234B121D1468224D2C405A
:1012400023431360136823F440331360026842F0B1
:10125000807202600268C2F34062002AFAD04868D5
:10126000C0F380300028FAD015480830016821F01A
:10127000F0010160016821F4E05141F4A0510160E6
:10128000016821F4604141F400410160016821F0EE
:10129000030141F002010160016801F00C0108291D
:1012A000FAD10A48FFF7FCFD0F20FFF7E3FA002808
:1012B00001D072B6FEE770BD003C024000700040F5
:1012C00000380240195440000080BFFF007A030A32
:1012D0000248016841F470010160704788ED00E048
:1012E0000148FFF74CBC0000A000002010B5064CE0
:1012F000206910F0010F05D004A000F0D7F86FF0BE
:101300000100206110BD00000010004054494D361E
:10131000E6ADA3E59CA8E8BF90E8A18C2CE4BC98BE
:10132000E58588E7BAA7E4B8BA3A360D0A000000A6
:1013300010B5064C206910F0010F05D004A000F094
:10134000B5F86FF00100206110BD000000140040EE
:1013500054494D37E6ADA3E59CA8E8BF90E8A18CC1
:101360002CE4BC98E58588E7BAA7E4B8BA3A340D0E
:101370000A000000F0B50268294C2A4D2A4E2B4F76
:101380002B4B4FF0804CA04209D0604507D0A842BB
:1013900005D0B04203D0B84201D0984204D122F027
:1013A000700E4A6842EA0E02A0421BD0604519D076
:1013B000A84217D0B04215D0B84213D0984211D0ED
:1013C0001C4DA8420ED01C4DA8420BD01B4DA8426C
:1013D00008D01B4DA84205D01A4DA84202D01A4D84
:1013E000A84203D122F44075CA682A434D6922F00D
:1013F00080022A4302608A68C2620A688262A0424E
:1014000001D0984201D1096901630121416101695B
:10141000C90703D0016921F001010161F0BD00009D
:10142000000001400004004000080040000C0040A3
:1014300000040140004001400044014000480140D8
:1014400000180040001C004000200040FEE70000A3
:101450001CB50B481824CDE900400023802209A1C7
:101460000C4801F0EBFF06480023001DCDE90040C9
:101470004FF4A06208A10C4801F0E0FF1CBD000081
:10148000940000204C4544546F67676C655F54615D
:10149000736B0000090D000853657269616C536538
:1014A0006E645F5461736B00B91100080FB4054B93
:1014B00010B503A9044A029800F0FEF810BC5DF8CC
:1014C00014FB0000891E00089C0000200FB4084B8C
:1014D00010B504A902AA039800F0EEF8044602A988
:1014E000002000F06CFC204610BC5DF814FB0000EE
:1014F000BF1D00080907090E002804DB00F1E020E9
:1015000080F80014704700F00F0000F1E02080F830
:10151000141D704702E008C8121F08C1002AFAD142
:1015200070477047002001E001C1121F002AFBD163
:10153000704700002DE9FF5F82B00021DDE9043033
:10154000020DDDF840B0034318D044F61050A2F26B
:10155000FF3242431514119801281FD0A5EB0B0050
:10156000401C5FEA000A4FF000064E4FDFF838914A
:10157000B046504615D5CAF1000413E01198012475
:101580004AA3012801D16FEA0B010298119AC0E920
:101590000031C0E9024206B0BDE8F09FCBF1000087
:1015A000DFE704460021404A491842EB0450CDE9E8
:1015B000001012E0E00707D032463B46404649465D
:1015C000FEF76CFF8046894632463B461046194678
:1015D000FEF764FF06460F466410002CEAD1DDE9F1
:1015E0000401DDE90023BAF1000F06DAFEF756FF29
:1015F00042464B46FEF752FF05E0FEF7C1FF42466A
:101600004B46FEF7BDFF04460E460022284BFFF76F
:1016100027F803D84FF0FF30014607E00022254BA2
:1016200020463146FEF793FEFFF7D6F8102409E076
:10163000002C0ADB0A220023FEF724FE039B303233
:101640001A55641E50EA0102F2D1641C039AC4F1D7
:1016500011031444119A012A03D0012208430DD129
:101660000AE0084304D000204FF0110B119072E7FC
:10167000A3EB0B056D1E0DE05B4504DD4FF0000292
:1016800005F1010504E003DA4FF00002A5F10105C0
:10169000002AECD002981199C0E90231C0E9004556
:1016A00079E70000000014400000F03F3000000027
:1016B0000000F0430000E03F2DE9FF4F95B09A464F
:1016C000884606460025EEE1252877D100242746E6
:1016D000F94A0121039400E0044316F8013F203B3E
:1016E00001FA03F01042F7D130782A2811D06FF0B8
:1016F0002F033078A0F13002092A16D8039A44F05B
:10170000020402EB820203EB42021044761C0390B7
:10171000EFE758F8042B0392002A03DA504244F40E
:101720000054039044F00204761C30782E2816D121
:1017300016F8010F44F004042A280DD06FF02F0290
:101740003078A0F13003092B09D807EB870302EBAF
:101750004303C718761CF3E758F8047B761C3078EF
:101760006C280FD006DC4C2817D068280DD06A28CA
:1017700014D104E0742810D07A280FD10DE044F47D
:1017800000140AE044F4801401E044F44014727838
:10179000824202D104F58014761C761C30786628CB
:1017A0000BD013DC582877D009DC002875D04528E9
:1017B000F6D04628F4D047281AD193E118E06328E0
:1017C00035D0642879D0652812D18BE1702873D088
:1017D00008DC6728F1D069286FD06E280DD06F28FB
:1017E00006D1ACE073282CD0752874D0782853D05B
:1017F0005246179990476D1C54E1C4F302500228D9
:1018000009D003280DD0D8F8001004280DD00D60A1
:1018100008F1040846E1D8F80010EA17C1E90052BF
:10182000F6E7D8F800100D80F2E70D70F0E718F831
:10183000041B8DF8001000208DF80100EB460120FC
:1018400003E058F804BB4FF0FF3061074FF0000190
:1018500002D40DE009F101018946B9420FDA814550
:10186000F8DB1BF809100029F4D108E009F10101A7
:1018700089468142FADB1BF809100029F6D103984A
:101880005346A0EB090721463846179A00F080FA24
:10189000284400EB090507E044E008E10DE01BF8EF
:1018A000010B524617999047B9F10109F7D25346F7
:1018B00021463846179AF2E039E00A21C4F3025271
:1018C0004FF0000B0091022A06D058F8040BC11704
:1018D000032A09D00AE023E008F1070020F00702FC
:1018E000F2E80201904605E000B2C117042A01D1D6
:1018F00040B2C117002906DA0A460021404261EBD6
:1019000002012D2202E0220504D52B228DF80420AD
:10191000012203E0E20701D02022F7E7914657E0D9
:101920000A2100E010214FF0000B00910BE0102184
:101930004FF0000B44F004040827009103E0082056
:101940004FF0000B0090C4F30252022A05D058F861
:10195000040B0021032A08D008E008F1070020F05A
:101960000702F2E80201904603E080B2042A00D1A7
:10197000C0B24FF0000922072AD53278702A07D06A
:10198000DDF800C08CF0100C5CEA0B0C05D00EE00A
:1019900040228DF80420012208E050EA010306D01D
:1019A00030238DF804308DF8052002229146009BEB
:1019B00083F0080353EA0B030AD150EA010201D174
:1019C000620705D530228DF804204FF001097F1EF3
:1019D0003278582A04D039A20C920CAA02920BE059
:1019E0003BA2F9E75B46009AFEF74CFC0C9B9B5C24
:1019F000029A521E0292137050EA0102F2D102982A
:101A000004A9081A00F1200B600702D524F48034E1
:101A100000E001275F4502DDA7EB0B0000E000209E
:101A200000EB0B01009003984944401A0390E00337
:101A300006D453462146179A039800F0A9F90544A5
:101A4000002706E001A85246C05D179990476D1C1B
:101A50007F1C4F45F6DBE0030CD553462146179A11
:101A6000039800F095F9054404E030205246179998
:101A700090476D1C0099481E00900029F5DC08E095
:101A80000298029952460078491C02911799904792
:101A90006D1CBBF10001ABF1010BF1DC5BE100F06F
:101AA00065F90544761C307800287FF40DAE19B036
:101AB0002846BDE8F08F000009280100303132339C
:101AC000343536373839616263646566000000007A
:101AD0003031323334353637383941424344454664
:101AE00000000000600700D4062708F1070020F07E
:101AF0000700F0E80223804603F0004C5FEA0C0088
:101B000001D097A009E0200501D596A005E0E007E7
:101B100001D095A001E0AFF24C001390307823F093
:101B2000004365280CD006DC452809D046281DD086
:101B300047287FD13BE0662818D067287AD136E065
:101B40000021112F01DB112000E0781CCDE90001FC
:101B500004A90CA8FFF7EEFCDDE90D010C9A4FF08B
:101B6000000B07F10109109200914EE04FF0004088
:101B70000097CDE9011004A90CA8FFF7DBFCDDE913
:101B80000D020C9B0F994FF0000B914610930092A1
:101B900011B9791C00EB0109B7EB090003D4C0F1BE
:101BA000FF3B07F10109A9EB0700019042E0012F7B
:101BB00000DA01270021112F01DD112000E0384655
:101BC000CDE9000104A90CA8FFF7B4FCDDE90D0183
:101BD0000C9A00914FF0000BB946109221070FD4D8
:101BE000009A4A4503DA914601E0A9F10109B9F1E9
:101BF000010F05DD109AA9F10101515C3029F4D0E3
:101C0000B84202DA10F1040F03DA0121CDE9011024
:101C100010E0002803DC8344A9EB000102E0411C32
:101C2000494500DD8946A0EB0B00401C01904FF0B8
:101C300000400290200705D40198484502DB4FF090
:101C4000FF30019000208DF84B0002980DF14B07FA
:101C5000B0F1004F25D002200C902B200D9002985F
:101C600000280CDA404202902D200D9007E00A2156
:101C70000298FEF70DFD3031029007F8011D0C9916
:101C8000481E0C900029F2DC02980028EFD1791E42
:101C90000D980870307800F0200040F0450007F8FB
:101CA000020D11A8C01BC01D02901398007800B14E
:101CB000012000EB0901019801EBE0710298014459
:101CC0000398401A401E0390E00306D45346214671
:101CD000179A039800F05CF805441398007818B13F
:101CE0005246179990476D1CE00323D55346214671
:101CF000179A039800F04CF805441BE0BBF1000F65
:101D000007DB0098584504DD1098179910F80B0070
:101D100001E0179930205246904701980BF1010BD2
:101D2000401E05F10105019004D12E20524617995D
:101D300090476D1CB9F10001A9F10109DEDC05E055
:101D400017F8010B5246179990476D1C0299481ECF
:101D500002900029F4DC53462146179A03989EE628
:101D60002D0000002B000000200000002DE9F041B4
:101D7000044600251E461746880404D405E039466B
:101D80002020B0476D1C641EF9D52846BDE8F081BF
:101D90002DE9F041044600251E469046C80301D5B2
:101DA000302700E02027880404D505E04146384666
:101DB000B0476D1C641EF9D52846BDE8F0810A685D
:101DC000531C0B601070704710B544080E4894B057
:101DD0000021026842F004020260006800F0040082
:101DE00012900A480090601ECDE901014FF6FF7085
:101DF000CDE903016846FEF717FE6846FEF742FE8E
:101E00000348046014B010BD403802400008004090
:101E1000900000202DE9F041040006D0184E3068F3
:101E200084420AD10020BDE8F081502080F311885F
:101E3000BFF34F8FBFF36F8FFEE700F0B7FD65690B
:101E4000776BB66B00F0D2FDBD4201D0B54201D137
:101E50000220E8E70B48854208D1A06A0028F7D1A4
:101E600094F858000128F3D00320DCE70548143823
:101E7000854202D00DB10120D5E70420D3E7000050
:101E800010000020D8050020044AC1B2516011683A
:101E9000C1F3C0110029FAD07047000000100140C2
:101EA000FEF7CEFCFEF712FFFFF7A8F9FFF7A8F840
:101EB000FFF7C8F8A820FFF787FF00F013F8FFF737
:101EC0009DF800F021F8FEE710B5EFF3058111B1A0
:101ED0006FF0050403E0002408B100F03FFE204647
:101EE00010BD0000EFF3058010B16FF005007047E2
:101EF0000448016811B14FF0FF30704701210160C3
:101F0000002070476000002010B5EFF3058010B18D
:101F10006FF0050010BD08480168012902D04FF09C
:101F2000FF3010BD054A002182F8141D0221016016
:101F300000F018FF002010BD600000200BE000E062
:101F40002DE9F041134C0F460546E6682068001D58
:101F500000F07AFC681C07D137B12168BDE8F04178
:101F60000D48091D00F016BD20683544B542456096
:101F7000216805D2A06BBDE8F041091D00F0F2BC5C
:101F8000606B091D00F0EEFCA06A854200D2A562DC
:101F9000BDE8F08110000020D80500202DE9F041B7
:101FA000054600F003FD2D4CA068401CA060206891
:101FB0002B4F10B1606930B32BE02560A068012879
:101FC00027D1002606EB860007EB800000F0BCFC62
:101FD000761C382EF6D3234800F0B6FC2148143086
:101FE00000F0B2FC1F48283000F0AEFC1D483C3029
:101FF00000F0AAFC1B48503000F0A6FC19486063B2
:102000001430A06305E02068E96AC06A884200D8FD
:102010002560606A401C60626864E86A21698842E1
:1020200000D9206100EB800007EB8000291D00F043
:10203000B1FC00F0DBFC606900280CD02068E96A84
:10204000C06A884207D208494FF080500860BFF349
:102050004F8FBFF36F8FBDE8F081000010000020AC
:10206000280100208805002004ED00E038B500F0CC
:102070009DFC104C2068C8B90F4800F065FC0E4864
:10208000143000F061FC0C48E060143020610A4B11
:102090000020F03B009003F1500210210A2000F0D4
:1020A0006FFF206010B105A100F022FDBDE83840AF
:1020B00000F09CBC4C000020DC060020546D7251E6
:1020C0000000000030B4026C0B46002A0BD0C1683F
:1020D0001144C1608468A14201D30168C16030BC71
:1020E0001846FEF700B930BC70472DE9F041856B0A
:1020F000174604460026026C82B1C7B1E068FEF7BD
:10210000F2F8E168206C091AE1602268914202D27B
:10211000A168081AE060022F16D017E02068A8B95D
:10212000A06801F05BFA06460020A0600EE060683F
:10213000FEF7D9F8216C606808446060A1688842A5
:1021400004D32068606001E005B16D1E6D1CA563BD
:102150003046BDE8F08110B5044690F8590058B1FA
:1021600001280CD002280FD0502080F31188BFF333
:102170004F8FBFF36F8FFEE7206B00F04BFC2046C4
:10218000BDE8104000F046BC10BD000010484FF400
:102190007051420706D0C01D0D4920F00700411ABA
:1021A000C1F570510B4A00230144C2E9000308390C
:1021B000183A21F0070111604B600B600B1AC0E95F
:1021C000001393604FF0004053605061704700006F
:1021D000BC0D00207C000020144E154CA6F29C473C
:1021E0004FF08058DFF84C9012E000BF00F0DEFBAB
:1021F000F068C568281D00F027FBA068401EA0609D
:102200006068401E606000F0F1FB2846FFF7A3FF06
:1022100060680028EAD138680128F9D9C9F8008037
:10222000BFF34F8FBFF36F8FF2E70000C4050020AC
:102230001000002004ED00E070B51D46049C51B173
:10224000C4F80020C4E90F010121204600F0CCFEB3
:1022500084F84C5070BD2460F4E700002DE9F05F75
:102260008846DDE90B941546834691009A460A9EFE
:10227000A522206BFEF749F86FF00301206B01EBFC
:102280008501084420F00707780707D0502080F325
:102290001188BFF34F8FBFF36F8FFEE70025B8F1B2
:1022A000000F0FD05FF00000221818F8001082F81D
:1022B000341018F8001011B1401C1028F4D384F821
:1022C000435001E084F83450382E00D33726E662BC
:1022D000C4E91365201D00F042FB04F1180000F072
:1022E0003EFB2461C6F138006462A061656584F834
:1022F000585052465946384600F090FA2060B9F1DD
:10230000000F01D0C9F80040BDE8F09F30B5114979
:1023100000E011460A688242FBD34B685C18844295
:1023200003D1406818444860084643681C1894422A
:1023300009D1084C183C2468A24209D052681A44BA
:1023400042600A6812680260814200D0086030BDB5
:102350000460F9E77C00002070B5002441600B4D5B
:102360000061914206D8D11A8269914206D2011DBC
:10237000286907E09A4203D2994201D3012403E07D
:10238000011DE86800F0EEFA204670BD4C00002008
:1023900010B5044600F00AFBA06B28B15FF0000402
:1023A00000F024FB204610BD0124F9E72DE9F04799
:1023B0008146086892460C46002600B3606804F126
:1023C000080540686060A84201D1416861606068AA
:1023D000D0F80C80606840686060A84201D1416814
:1023E0006160606806EBC60109EB8101C76853466E
:1023F0000122384600F0D8FB761C4745EAD130462A
:10240000BDE8F08730B589B03C4D6EE004980028F7
:1024100006DADDE90601059A90470498002864DB96
:10242000069C606910B1201D00F00EFA03A800F0B0
:10243000D7F8024604980A2857D2DFE800F00505CD
:10244000052D334A05052D3394F8280040F001008E
:1024500084F828000599A069059B01442046FFF7F0
:102460007BFF68B3216A2046884794F8280040071C
:102470003BD5002000900598A16900234218194619
:10248000204601F0B5F9D8B9502080F31188BFF388
:102490004F8FBFF36F8FFEE714F8280F20F0010075
:1024A000207022E094F8280040F0010084F8280011
:1024B0000598A06128B1811813462046FFF74CFF0C
:1024C00013E0502080F31188BFF34F8FBFF36F8F5D
:1024D000FEE794F82800810703D4204600F09AFA1A
:1024E00003E020F0010084F82800002204A92868F5
:1024F00000F0CEFE002889D109B030BD4C0000208C
:102500002DE9FC410F46054600F070FC01A800F0E3
:1025100067F80446019818B101F0D8F8BDE8FC81CD
:10252000254EAFB130690068D0B30027291B3A4669
:10253000306800F0F1FA01F0C9F80028EED11F4927
:102540004FF080500860BFF34F8FBFF36F8FE5E708
:10255000A542EBD801F0BAF8F0682746C068C46815
:10256000201D00F071F994F82800410719D5A069E1
:102570002B4641193A462046FFF7EEFEA8B100204F
:102580000346014600902A46204601F031F960B921
:10259000502080F31188BFF34F8FBFF36F8FFEE79A
:1025A00007E020F0010084F82800216A20468847CF
:1025B000B4E70127BAE700004C00002004ED00E07A
:1025C0000648416B096829B1416BC968C968496807
:1025D000816270474FF0FF31FAE7000010000020E1
:1025E00070B5054600F090FF064E0446B068844280
:1025F00003D200F009F8012000E000202860204606
:10260000B46070BD4C000020F8B5194D20E0C068E2
:10261000C4680668201D00F017F9216A2046884723
:1026200094F82800400713D5A0693044B04206D979
:1026300024616060211DE86800F094F908E0002042
:102640000346014600903246204601F0D1F838B1E9
:10265000E86801680029DAD12969C5E90310F8BDE5
:10266000502080F31188BFF34F8FBFF36F8FFEE7C9
:102670004C000020002101E0401C491C0278A52AE2
:10268000FAD0C1F38F00704708484068401C4FF0F3
:10269000500080F3118804D0BFF34F8FBFF36F8FCA
:1026A000FEE7BFF34F8FBFF36F8FFEE7840000207C
:1026B000074CE068016841B1C0680021D0F8000013
:1026C000FFF71EFFFFF79EFEF3E701210020F7E76B
:1026D0004C0000202DE9F041044600F067F994F920
:1026E000455004F1240609E0606A48B1304600F024
:1026F000B5FF08B100F0FCFA6D1E6DB2002DF3DCE1
:102700004FF0FF3684F8456000F070F900F04EF9A4
:1027100094F9445004F1100709E0206948B13846A3
:1027200000F09CFF08B100F0E3FA6D1E6DB2002DC1
:10273000F3DC84F84460BDE8F04100F057B90000D4
:102740002DE9F0410546002700F050FB324E30687D
:1027500008B9FFF71BFD706905424ED1C5B30835B6
:1027600068070ED005F00700C0F1080005446807AF
:1027700007D0502080F31188BFF34F8FBFF36F8FC6
:10278000FEE72DB37068854237D8234818300146DC
:102790000C6801E020460C466168A94202D221681B
:1027A0000029F7D131688C4227D007682168016081
:1027B00060680837411B10290FD96019420708D0FB
:1027C000502080F31188BFF34F8FBFF36F8FFEE768
:1027D00013E041606560FFF799FD61687068401A19
:1027E0007060B268904200D2B0607069014300200E
:1027F000C4E90001F068401CF06000F067FF780752
:1028000007D0502080F31188BFF34F8FBFF36F8F35
:10281000FEE73846BDE8F0816400002010B5031FD4
:102820004FF080741C601B1F21F001011960191FFB
:10283000044B0B6014390A60091F6FF00202443820
:102840000A6010BD89260008D0E9013201699A604A
:10285000D0E901235A604A68824201D182684A6005
:10286000002202610868401E086008687047000086
:102870002DE9F04717460A4605460024382600F0A1
:10288000B5FADFF88C80D8F8080082423AD3DFF836
:102890008490761E06EB860104EBC40009EB8101EF
:1028A00005EB80000122FFF781FD0444002EF0D1EA
:1028B00004EBC40005EB800002224646D8F8341031
:1028C000FFF774FD044404EBC40005EB8000022212
:1028D000B16BFFF76BFD044404EBC40005EB800013
:1028E00004220D49FFF762FD04440B4904EBC400C8
:1028F00005EB800003221431FFF758FD04440FB1AB
:102900000020386000F0E2FE2046BDE8F0870000BD
:102910001000002028010020C4050020034B0360A4
:1029200003F15C00086080201060704704070020FD
:10293000044B036003F15C0008604FF4807010608A
:10294000704700006009002000F108014FF0FF32DD
:10295000C0E90112C16001610021016070470021DE
:102960000161704730B50B685A1C02D000F10802B3
:1029700002E0026904E02246546825689D42FAD9C3
:1029800053684B6099608A60516008610168491C16
:10299000016030BD42684A6093688B6093685960FB
:1029A000916008610168491C01607047502080F304
:1029B0001188BFF34F8FBFF36F8F0A494868401CDF
:1029C000486001280CD10848006810F0FF0F07D0BC
:1029D000502080F31188BFF34F8FBFF36F8FFEE756
:1029E000704700008400002004ED00E008494868BA
:1029F00028B1401E486001D180F3118870475020F3
:102A000080F31188BFF34F8FBFF36F8FFEE7000095
:102A10008400002070B500282AD0164DA0F10804CB
:102A200060686969084207D1502080F31188BFF3BC
:102A30004F8FBFF36F8FFEE722683AB1502080F3CB
:102A40001188BFF34F8FBFF36F8FFEE7884360603D
:102A500000F0CCF960686968084468602046FFF7B8
:102A600055FC2869401C2861BDE8704000F02EBE6E
:102A700070BD0000640000204FF0E02000210161E3
:102A8000816105494FF47A720968B1FBF2F1491E80
:102A900041610721016170470C00002010B5FDF76E
:102AA000DBFB114910280ED300F1E02090F8F00371
:102AB0000A78904207D2502080F31188BFF34F8FDD
:102AC000BFF36F8FFEE709480068896800F4E06093
:102AD000884207D9502080F31188BFF34F8FBFF38E
:102AE0006F8FFEE710BD0000840000200CED00E0B9
:102AF00010B5084B002200BF53F832401CB1521CE5
:102B0000082AF9D310BD43F8321003EBC201486024
:102B100010BD0000E800002070B515460E460446C2
:102B2000FFF744FF94F944100020491C01D184F8B8
:102B3000440094F94510491C01D184F84500FFF781
:102B400055FFA06B28B92A46314604F1240000F055
:102B5000EDF82046BDE87040FFF7BCBD10B502009F
:102B600014D00F48006B38B1502080F31188BFF3A8
:102B70004F8FBFF36F8FFEE700F038F9002110464A
:102B8000FFF7DEF900F0A2FD002807D105494FF05C
:102B900080500860BFF34F8FBFF36F8F10BD0000F0
:102BA0001000002004ED00E02DE9F0410C461A4928
:102BB0001646B0B14FEA000505F13400C4E90050F3
:102BC000E86A2061286BE061686CA0600027E86C0F
:102BD000C4E90507052B12D00868854203D1277385
:102BE00011E00D68E8E72373032B0CD100F0FEF829
:102BF000A86A08B10220207300F068FD03E02846AF
:102C0000FFF708F920732EB1286BFFF733FD2084FE
:102C1000BDE8F0812784FBE71000002002490A6A22
:102C20000260C96841607047100000202DE9FC4730
:102C30004FF00009044680F80090284885688068B5
:102C400000EBC0008000FFF77BFD070044D00022AE
:102C50002946FFF70DFE8046002536E005EBC5004E
:102C600007EB8006307B052817D2DFE800F003056C
:102C700010121400582000E052208246204671684D
:102C8000FDF75CFB2046FDF752FB202109E04220C6
:102C9000F3E75320F1E74420EFE70020EDE721546C
:102CA000401C0F28FBD304F800900444B168308C1A
:102CB000CDE9000152460AA120463369FEF706FC21
:102CC0002046FDF734FB04446D1C4545C6D3384609
:102CD000BDE8FC47FFF79EBEBDE8FC871000002062
:102CE0000925630925750925750925750D0A000053
:102CF00001490120C86170471000002010B50C4642
:102D000050B1094909681831FFF72CFE2046BDE88B
:102D100010400121FFF714B9502080F31188BFF350
:102D20004F8FBFF36F8FFEE71000002070B5144681
:102D30000D4668B10A4909681831FFF72BFE0CB13E
:102D40004FF0FF3521462846BDE87040FFF7F8B840
:102D5000502080F31188BFF34F8FBFF36F8FFEE7D2
:102D60001000002030B587B00024039405AA04A900
:102D700003A80494FFF7D2FDDDE903010094CDE937
:102D80000110002315A11748059A00F084FB164D89
:102D90000028E8621FD000F0FBFC012809D0401C8D
:102DA00019D1502080F31188BFF34F8FBFF36F8F7D
:102DB000FEE7502080F31188BFF34F8FBFF36F8F72
:102DC0004FF0FF30A86201206861EC6007B0BDE8F9
:102DD000304000F045B807B030BD000049444C45D4
:102DE00000000000D9210008100000200248016BFB
:102DF000491C01637047000010000020164810B500
:102E0000016B11B10121C16110BD0021C1610169D6
:102E1000124A01E0B9B1491E01EB810352F8233097
:102E2000002BF7D001EB810302EB830202F10804CF
:102E300053685B685360A34201D15B685360DA68F2
:102E40000260016110BD502080F31188BFF34F8FE5
:102E5000BFF36F8FFEE70000100000202801002064
:102E60001CB537480168374A914207D1502080F39A
:102E70001188BFF34F8FBFF36F8FFEE700683149B2
:102E8000491E884207D1502080F31188BFF34F8F2D
:102E9000BFF36F8FFEE72C4908780190FF20087080
:102EA00008788DF800009DF800009DF8002000F0E3
:102EB000F000904207D0502080F31188BFF34F8F6D
:102EC000BFF36F8FFEE79DF80000204C00F050002C
:102ED00020700720A06005E09DF8002052008DF8CA
:102EE0000020401E9DF800201206F5D4A0600328A3
:102EF00007D0502080F31188BFF34F8FBFF36F8F3F
:102F0000FEE74FF44070A060019808700C48203034
:102F1000016841F470010160016841F07041016095
:102F2000FFF7AAFD00206060FDF75EF90848016820
:102F300041F040410160FDF743F900201CBD000055
:102F400000ED00E071C20F4100E400E084000020C9
:102F500034EF00E010B5502080F31188BFF34F8F9D
:102F6000BFF36F8F00F0D6FA18B104494FF08050CC
:102F70000860002080F3118810BD000004ED00E01F
:102F800038B5049D18B153B1CAB181B120E05020C9
:102F900080F31188BFF34F8FBFF36F8FFEE7502090
:102FA00080F31188BFF34F8FBFF36F8FFEE7502080
:102FB00080F31188BFF34F8FBFF36F8FFEE739B1F6
:102FC000502080F31188BFF34F8FBFF36F8FFEE760
:102FD00050241C46012384F846302B460094FFF70A
:102FE0002BF9204638BD000070B50D46040025D0F1
:102FF000FFF7DCFCD4E90F20216802FB0011A1607F
:103000000021A163216861600A46D4E90F01401ED6
:1030100000FB0121E16021464FF0FF3001F8440F31
:10302000487004F110008DB1FFF78EFC04F124000C
:10303000FFF78AFCFFF7DAFC012070BD502080F317
:103040001188BFF34F8FBFF36F8FFEE7216900290F
:10305000F0D000F003FB0028ECD004494FF0805082
:103060000860BFF34F8FBFF36F8FE3E704ED00E01D
:103070002DE9FF4782B01D468A464FF00008040044
:1030800003D0BAF1000F08D011E0502080F311886E
:10309000BFF34F8FBFF36F8FFEE7206C38B1502026
:1030A00080F31188BFF34F8FBFF36F8FFEE7022DC0
:1030B0000AD1E06B012807D0502080F31188BFF3BC
:1030C0004F8FBFF36F8FFEE700F010FA3F4F4FF0C6
:1030D00000094FF0805648B9049838B1502080F369
:1030E0001188BFF34F8FBFF36F8FFEE7FFF75EFCD2
:1030F000A06BE16B884207D3022D05D00498D0B1B4
:10310000B8F1000F1AD01EE02A4651462046FEF7BD
:10311000ECFF616A19B104F1240000F09FFA20B1BC
:103120003E60BFF34F8FBFF36F8FFFF75FFC01204F
:1031300006B0BDE8F087FFF759FC22E06846FFF7CC
:103140006DFD4FF00108FFF751FCFFF74FFEFFF751
:103150002DFC94F94400401C01D184F8449094F96A
:103160004500401C01D184F84590FFF73FFC04A9BD
:10317000684600F029F930B12046FFF7ABFA00F0BD
:10318000A5FA0020D4E7FFF711FCA06BE16B8842A1
:1031900013D1FFF72BFC04F110000499FFF7AEFDEB
:1031A0002046FFF797FA00F091FA00289ED13E6082
:1031B000BFF34F8FBFF36F8F98E7FFF717FC2046E1
:1031C000FFF788FA00F082FA90E7000004ED00E0D3
:1031D0002DE9F0471F4690468946040003D0B9F117
:1031E000000F08D011E0502080F31188BFF34F8FFB
:1031F000BFF36F8FFEE7206C38B1502080F3118849
:10320000BFF34F8FBFF36F8FFEE7022F0AD1E06B42
:10321000012807D0502080F31188BFF34F8FBFF3F0
:103220006F8FFEE7FFF73AFC5020EFF3118680F333
:103230001188BFF34F8FBFF36F8FA06BE16B884294
:1032400006D3022F04D0002086F31188BDE8F08752
:1032500094F94550A06B3A4649462046FEF745FF93
:10326000681C04D06D1C84F845500120ECE7606AAE
:103270000028FAD004F1240000F0F0F90028F4D07E
:10328000B8F1000FF1D00121C8F80010EDE70000FF
:103290002DE9F747002683B08A46040003D0BAF12F
:1032A000000F08D011E0502080F31188BFF34F8F3A
:1032B000BFF36F8FFEE7206C38B1502080F3118888
:1032C000BFF34F8FBFF36F8FFEE700F00FF9DFF80A
:1032D000F4804FF000094FF0805748B9059838B195
:1032E000502080F31188BFF34F8FBFF36F8FFEE73D
:1032F000FFF75CFBA56BC5B151462046FEF7E2FE29
:103300006D1EA563206950B104F1100000F0A6F90C
:1033100028B1C8F80070BFF34F8FBFF36F8FFFF76E
:1033200065FB012006B0BDE8F087059808B11EB125
:1033300006E0FFF75BFB27E06846FFF76FFC01261E
:10334000FFF754FBFFF752FDFFF730FB94F9440001
:10335000401C01D184F8449094F94500401C01D1EF
:1033600084F84590FFF742FB05A9684600F02CF869
:10337000002820460AD0FFF7ADF900F0A7F9204653
:10338000FFF706F80028B3D00020CBE7FFF700F8DE
:1033900090B104F124000599FFF7B0FC2046FFF737
:1033A00099F900F093F90028A2D1C8F80070BFF392
:1033B0004F8FBFF36F8F9BE72046FFF78BF900F02D
:1033C00085F995E704ED00E02DE9F0410C46050094
:1033D00011D0C4B1FFF7EAFA174BDA686E682068BB
:1033E000911B471C17D02F681B6A9F4219D0964229
:1033F00017D8012410E0502080F31188BFF34F8FBD
:10340000BFF36F8FFEE7502080F31188BFF34F8F1B
:10341000BFF36F8FFEE70024FFF7E8FA2046BDE810
:10342000F081884205D9401A20602846FFF7F6FB54
:10343000F1E700202060DCE7100000202DE9FF5FAD
:103440008346DDE90E87994616468A469000FFF7C7
:1034500077F905001CD05C20FFF772F9040014D046
:103460000020256384F85900CDE90240CDE90087AA
:103470004B46324651465846FEF7F0FE2046FEF7D0
:103480008DFD012004B0BDE8F09F2846FFF7C2FA89
:103490004FF0FF30F6E7F0B585B0DDE90B640A9D2B
:1034A000A6B1DCB15C2700972663022684F8596038
:1034B000002604AFCDE90246CDE90057FEF7CEFE67
:1034C0002046FEF76BFD049805B0F0BD502080F358
:1034D0001188BFF34F8FBFF36F8FFEE7502080F34B
:1034E0001188BFF34F8FBFF36F8FFEE70548416927
:1034F00019B1006B18B100207047012070470220FD
:1035000070470000100000200148C06870470000AC
:10351000100000202DE9F0412E4C0027206B28B12F
:10352000A069401CA0613846BDE8F081E668761CC1
:10353000E66013D1606B006838B1502080F31188C9
:10354000BFF34F8FBFF36F8FFEE7606BA16B6163BB
:10355000A063206A401C2062FFF732F8A06ADFF8FF
:103560007880864209D3606B0068A0B1606BC06848
:10357000C5686868864211D2A0622068C06A00EB04
:10358000800158F82100012800D90127E0690028AE
:10359000C9D00127C7E74FF0FF30EDE7281DFFF73F
:1035A00053F9A86A18B105F11800FFF74DF9E86A58
:1035B0002169884200D9206100EB800108EB81007D
:1035C000291DFFF7E7F9E86A2168C96A8842CAD36A
:1035D0000127C8E7100000202801002070B5040072
:1035E0004FF0000133D01B4D2868844207D0502093
:1035F00080F31188BFF34F8FBFF36F8FFEE7206D0D
:1036000038B1401E2065E36CE26A9A421FD040B197
:103610001DE0502080F31188BFF34F8FBFF36F8FF1
:10362000FEE7201DFFF710F9E06CE062C0F1380002
:10363000A061E06A2969884200D92861064900EB47
:10364000800001EB8000211DFFF7A4F9012108464D
:1036500070BD0000100000202801002070B5C06877
:10366000C46854B104F118000646FFF7EDF8144D94
:10367000286B50B13146134815E0502080F3118873
:10368000BFF34F8FBFF36F8FFEE7201DFFF7DCF80E
:10369000E06A2969884200D928610B4900EB800063
:1036A00001EB8000211DFFF775F9E06A2968C96AFE
:1036B000884202D90120E86170BD002070BD000081
:1036C00010000020B0050020280100202DE9F0475F
:1036D0002C4D00242746286B38B1FFF767F9286B7B
:1036E000401E2863286B40B146E0502080F31188CB
:1036F000BFF34F8FBFF36F8FFEE7A968224E012003
:10370000D1B3A6F5916980463068E0B1F068C4682D
:1037100004F11800FFF798F8201DFFF795F8E06A0C
:103720002969884200D9286100EB800109EB8100FA
:10373000211DFFF72FF9E06A2968C96A8842E3D39F
:10374000C5F81C80E0E70CB1FEF73AFFAC694CB15C
:103750004FEA0806FFF7DEFE00B1EE61641EF9D104
:103760000020A861E86938B10849012738070860D6
:10377000BFF34F8FBFF36F8FFFF738F93846BDE8BF
:10378000F087000010000020B005002004ED00E0EC
:1037900010B586B0FEF76AFC114C2068B8B1002065
:1037A0000390049005AA04A903A8FFF7C1F8DDE976
:1037B000032102208DE8070000230AA10B48059A87
:1037C000FFF769FE606010B106B0012010BD502007
:1037D00080F31188BFF34F8FBFF36F8FFEE70000B8
:1037E0004C000020546D722053766300B12600080F
:1037F0002DE9FF411E46134602000A9D4FF00000CE
:1038000016D0144C2768002F0FD0CDE90013029278
:10381000062917DAFFF76AFE02284FF000030FD0DF
:10382000002269462068FFF723FC04B0BDE8F08160
:10383000502080F31188BFF34F8FBFF36F8FFEE7E7
:103840002A46EEE70023324669463846FFF7C0FCB9
:10385000EBE700004C00002000000000000000002A
:103860000102030406070809000000000102030426
:103870009038000800000020A00000001415000887
:1038800030390008A0000020204D00002415000859
:103890000100000010000000000000000024F400FF
:1038A0000000000000000000000000000000000018
:1038B0000000000000000000000000000000000008
:1038C00000000000000000000000000000000000F8
:1038D00000000000000000000000000000000000E8
:1038E00000000000000000000000000000000000D8
:1038F00000000000000000000000000000000000C8
:1039000000000000000000000000000000000000B7
:103910000000000000000000AAAAAAAA00000000FF
:103920000000000000000000000000000000000097
:040000050800018965
:00000001FF
