:020000040800F2
:10000000B85100205D0200082B130008530E0008B1
:1000100029130008B5090008551900080000000060
:100020000000000000000000000000009D0100082A
:10003000B709000800000000F90100087116000867
:1000400077020008770200087702000877020008AC
:10005000770200087702000877020008770200089C
:10006000770200087702000877020008770200088C
:10007000770200087702000877020008770200087C
:10008000770200087702000877020008770200086C
:10009000770200087702000877020008770200085C
:1000A000770200087702000877020008770200084C
:1000B000770200087702000871170008770200082D
:1000C000770200087702000877020008770200082C
:1000D000770200087702000877020008770200081C
:1000E000770200087702000877020008770200080C
:1000F00077020008770200087702000877020008FC
:1001000077020008770200087702000877020008EB
:1001100077020008770200087D170008C117000861
:1001200077020008770200087702000877020008CB
:1001300077020008770200087702000877020008BB
:1001400077020008770200087702000877020008AB
:10015000770200087702000877020008770200089B
:10016000770200087702000877020008770200088B
:1001700077020008770200087702000800000000FC
:100180007702000877020008DFF80CD000F078FB57
:1001900000480047F9230008B85100202C4B19688B
:1001A0000868B0E8F04F80F30988BFF36F8F4FF015
:1001B000000080F3118870470000000008480068C4
:1001C000006880F308884FF0000080F3148862B65E
:1001D00061B6BFF34F8FBFF36F8F00DF00BF00BF6B
:1001E00008ED00E0DFF80C00016841F470010160E7
:1001F000704700BF88ED00E0EFF30980BFF36F8F19
:10020000134B1A681EF0100F08BF20ED108A20E96A
:10021000F04F106009B44FF0500080F31188BFF325
:100220004F8FBFF36F8F03F0AFF84FF0000080F3F4
:10023000118809BC19680868B0E8F04F1EF0100F6B
:1002400008BFB0EC108A80F30988BFF36F8F704746
:1002500010000020EFF3058070470000064880473B
:1002600006480047FEE7FEE7FEE7FEE7FEE7FEE79B
:10027000FEE7FEE7FEE7FEE76117000889010008D8
:100280002DE9F05F0546002092469B4688460646CB
:10029000814640241BE0284641464746224600F05E
:1002A00058FA53465A46C01A914110D3114618467F
:1002B000224600F03FFA2D1A67EB01084F4622460E
:1002C0000120002100F036FA17EB00094E41201EF4
:1002D000A4F10104DFDC484631462A464346BDE826
:1002E000F09F2DE9FE43994615468846074601AC26
:1002F000022942D3002D40D000200290A8F1010035
:100300004FF0FF36009022E000FB057201FB057004
:1003100011464A469047002805DC54F82600304430
:1003200044F8260013E060682A4600FB057154F883
:10033000040C00FB057007E00B7890F800C001F892
:1003400001CB00F8013B521E002AF5D1764254F849
:10035000040C61688842D7DC4B462A463846FFF7D2
:10036000C0FF54F8040C4B46A8EB0001401C00FBF6
:1003700005702A46491EFFF7B4FFBDE8FE8340EA38
:1003800001039B0703D009E008C9121F08C0042A13
:10039000FAD203E011F8013B00F8013B521EF9D2FA
:1003A0007047D2B201E000F8012B491EFBD2704722
:1003B0000022F6E710B513460A4604461946FFF731
:1003C000F0FF204610BD2DE9FE4F804681EA030074
:1003D000C00F0C46009021F0004123F00045B8EB1F
:1003E0000200A94105D24046214690461C460B46D4
:1003F000024623F00040104347D0270DC7F30A0000
:10040000C3F30A510290401A019040286BDAC3F3FB
:10041000130040F4801B0098924620B10023D2EBD9
:10042000030A63EB0B0B01985946C0F1400250469A
:1004300000F080F906460D4650465946019A00F0F4
:1004400098F910EB08006141002487EA115284EA10
:10045000E7731A4340D0009A62B3019A012A4FEA27
:10046000075215DC001B61EB02014FF0004202EA6B
:100470000752CDE90042001C41F5801132462B465F
:1004800000F098F903B0BDE8F08F40462146F9E747
:10049000001B61EB0201001C41F5801300185B4159
:1004A0002018A2F5001747EB030140EAD570B619F2
:1004B0006D4111E06D084FEA360645EAC0754FEA16
:1004C0000752001B61EB0201001C41F58011490835
:1004D0004FEA30000019514132462B4603B0BDE8C7
:1004E000F04F00F058B90098012240000023D0EBF3
:1004F000020263EBE073009821464FEAE074B8EB28
:10050000000061EB0401E9E783F000435BE781F061
:10051000004158E72DE9FE4F81EA030404F000444E
:1005200021F0004100944FF0000B23F0004350EA0B
:1005300001045ED052EA03045BD0C3F30A54C1F352
:100540000A552C44A4F2F3340194A0FB0254C1F3E5
:10055000130141F48011C3F3130343F4801301FB2F
:10056000024400FB034E840A970A44EA815447EA96
:100570008357A4FB076802958D0A05FB07854FEAA0
:10058000932C04FB0C542705029D4FEA065847EABA
:100590001637B5EB08056EEB070C870E920E47EA8F
:1005A000811742EA8312A7FB0201B6EB0B0164EB51
:1005B00000042B0D43EA0C335E1844EB1C50DA4662
:1005C0005146E7FB0201C5F313044FEA0B3343EA3C
:1005D00014534FEA0432019C43EA0603A4F10C04CD
:1005E0000294009CCDE900B400F0E4F803B0BDE84B
:1005F000F08F00200146F9E72DE9F04D81EA030470
:1006000004F0004B21F0004514464FF0000A23F09F
:10061000004150EA050220D054EA01021DD0C5F382
:100620000A570246C5F31303C1F31300C1F30A5678
:1006300040F4801543F48013A7EB0608101BD64640
:1006400008F2FD3873EB050002D308F1010801E060
:1006500092185B41B8F1000F03DA00200146BDE8B3
:10066000F08D00204FF48011064684460EE0171BE3
:1006700073EB050705D3121B63EB050306434CEA36
:10068000010C49084FEA300092185B4150EA01071B
:10069000EDD152EA030012D082EA040083EA050198
:1006A000084305D0101BAB4106D20122002306E00F
:1006B00000224FF0004302E06FF0010253101AEBEA
:1006C00006004CEB085110EB0A0041EB0B01BDE8B2
:1006D000F04D00F060B8000030B5041E71F1000468
:1006E00004DB4FF00044404264EB0101141E73F13F
:1006F000000405DB1C464FF00043524263EB040349
:10070000994208BF904230BD30B50B4601460020EB
:100710002022012409E021FA02F59D4205D303FAC3
:1007200002F5491B04FA02F52844151EA2F1010244
:10073000F1DC30BD202A04DB203A00FA02F100206F
:1007400070479140C2F1200320FA03F3194390400F
:100750007047202A04DB203A21FA02F0002170477A
:1007600021FA02F3D040C2F1200291400843194619
:100770007047202A06DBCB17203A41FA02F043EA01
:10078000E07306E041FA02F3D040C2F1200291404A
:1007900008431946704710B5141E73F1000408DAB7
:1007A000401C41F1000192185B411A4301D120F035
:1007B000010010BD2DE9F04D92469B4611B1B1FAF2
:1007C00081F202E0B0FA80F220329046FFF7B2FFE9
:1007D00004460F4640EA0A0041EA0B0153465A46D6
:1007E000084313D0114653EA010019D0C8F1400262
:1007F0005046FFF7AEFF05460E4650465946424664
:10080000FFF798FF084305D0012004E02046394651
:10081000BDE8F08D0020054346EAE0762C433743DF
:100820000A986305E40AA0EB08000022FD0A44EAE6
:1008300047540A3002D500200146E9E701051019A6
:100840006941DDE9084500196941BDE8F04DA2E7BD
:10085000C1F30A52C1F3130140F2FF3341F4801196
:100860009A4202DA00200146704740F233439A422E
:10087000A2F2334202DC5242FFF76BBFFFF75ABFCE
:10088000064C074D06E0E06840F0010394E80700DD
:1008900098471034AC42F6D3FFF77AFC383E000894
:1008A000583E0008F0B593B000240F941094142122
:1008B00068461194FFF77CFD0B940C940D9418215D
:1008C00005A80E94FFF774FD3648016841F4807165
:1008D0000160006800F4807012903248143801689A
:1008E00041F001010160006805A900F001001290CB
:1008F000022005900320069009942B4800F046FB47
:100900002A4D0F9410940FA92846119400F0F0FA84
:10091000009401940294039469462846049400F0DC
:1009200001FBA86840F48060A8604FF48030CDE9F6
:100930000B040BA91E4800F0ABFA4FF4407191FA7A
:10094000A1F16815B1FA81F1C84005EB8000C16AD8
:1009500021F01F0141F00101C1624FF0007090FAD7
:10096000A0F1B1FA81F1C84005EB8001CB684FF0EE
:10097000F87292FAA2F64FF44010B6FA86F620FA10
:1009800006F60727B74092FAA2F2B2FA82F2D040F6
:10099000BB4384402343CB60A86840F00100A860BB
:1009A00013B0F0BD44380240000002400020014076
:1009B00000230140FEE77047024881680278114435
:1009C00081607047000000200B4810B5016841F4B9
:1009D00000710160016841F480610160016841F4C7
:1009E00080710160032000F09FF80F2000F006F8EE
:1009F00000F050F8002010BD003C024030B5054624
:100A00001F4887B00024016841F0040101600068BC
:100A100006A900F00400009001A800F097F80498DF
:100A2000A8B100F0B3F840001649174AB0FBF1F145
:100A30001648491E026040F2E732C0E90324C0E9CB
:100A40000114846100F0B4F8040003D015E000F054
:100A50009DF8E9E70D4800F015F904000DD11E20BE
:100A600000F034F8102D07D2002229461E2000F095
:100A70003BF80748056000E0012407B0204630BD80
:100A80004038024040420F0000080040980000201B
:100A9000040000200C4882B0016841F480410160EC
:100AA000006800F4804000900748001F016841F092
:100AB000805101600068002200F0805000900F21FA
:100AC000901E02B000F010B844380240002809DB44
:100AD00000F01F02012191404009800000F1E02058
:100AE000C0F8001170470000F0B40E4B1B680C46B4
:100AF000C3F30223C3F10705042D00D90425191DF2
:100B0000072901D2002300E0DB1E012606FA05F1C9
:100B1000491E214099409E40761E16403143F0BC4C
:100B200000F03EBF0CED00E0064900F00702086847
:100B30004FF6FF03184040EA0220034A10430860C2
:100B4000704700000CED00E00000FA050F22026083
:100B50000C4A136803F003034360136803F0F003C7
:100B60008360136803F4E053C36012684FF4E053EA
:100B700003EAD20202610448006800F0070008603E
:100B80007047000008380240003C02400448054914
:100B900000680968044AC1F38221515CC84070476B
:100BA0000C00002008380240F43D000870477047F0
:100BB00010B5040003D094F83D0010B107E0012007
:100BC00010BD002084F83C00204600F01EF80220F2
:100BD00084F83D00211D206800F014FE012084F8F7
:100BE000460084F83E0084F83F0084F8400084F812
:100BF000410084F8420084F8430084F8440084F8FB
:100C0000450084F83D00002010BD704790F83D106D
:100C1000012901D001207047022180F83D100068B1
:100C20001149884214D0B0F1804F11D00F49884249
:100C30000ED00F4988420BD00E49884208D00E4989
:100C4000884205D00D49884202D00D49884204D11E
:100C5000816801F00701062903D0016841F0010114
:100C600001600020704700000000014000040040C7
:100C700000080040000C004000040140004001401A
:100C80000018004090F83D10012901D00120704764
:100C9000022180F83D100168CA6842F00102CA6072
:100CA00000681149884214D0B0F1804F11D00F492B
:100CB00088420ED00E4988420BD00E49884208D097
:100CC0000D49884205D00D49884202D00C4988421E
:100CD00004D1816801F00701062903D0016841F0C1
:100CE0000101016000207047000001400004004045
:100CF00000080040000C004000040140004001409A
:100D00000018004070472DE9F04104460068C668AD
:100D100005694FF00007A90713D5B10711D5F91ED2
:100D2000016101202077206880698007204602D079
:100D3000FFF7E8FF04E000F07EF8204600F07CF8C2
:100D40002777680716D5700714D521686FF004005F
:100D50000861022020772068806910F4407F2046D7
:100D600002D0FFF7CFFF04E000F065F8204600F066
:100D700063F82777280715D5300713D521686FF05A
:100D800008000861042020772068C0698007204699
:100D900002D0FFF7B7FF04E000F04DF8204600F066
:100DA0004BF82777E80616D5F00614D521686FF0C2
:100DB00010000861082020772068C06910F4407F87
:100DC000204602D0FFF79EFF04E000F034F82046F2
:100DD00000F032F82777E80708D0F00706D021683E
:100DE0006FF001000861204600F028F8280608D5B9
:100DF000300606D521686FF0800008612046FFF7B5
:100E0000D5FE680608D5700606D521686FF040004B
:100E10000861204600F01CF8A8060AD5B00608D5DF
:100E200021686FF0200008612046BDE8F041FFF71F
:100E3000BEBEBDE8F08170477047000000680349FE
:100E4000884201D1FFF7B8BD70470000000800409C
:100E50007047FEE700B587B018216846FFF7A8FA8B
:100E60000948016841F0010101600068002100F0BB
:100E7000010006900120CDE9000104906946034875
:100E800000F084F807B000BD303802400000024096
:100E900030B5134C4B680022A468124D04F00104D5
:100EA000AD6805F001052C430F4DAD6805F0010557
:100EB0002C4302D00122104630BD0C4D53B10C68BA
:100EC0001C43D1E902310B4341681C4329400C43C8
:100ED0004460F0E7436809682B400B434360EAE74E
:100EE000002001400021014000220140E010FCFFF1
:100EF00030B58368002213F0010F02D001221046A2
:100F000030BD8C680B6823434468054D2C40234357
:100F100043608368496823F400630B438360EEE712
:100F2000FFFEFFFC30B54B688468002214F0010F0F
:100F300002D00122104630BD002B436823F46843E1
:100F400001D08C6823434360D1E903342343846890
:100F5000074D2C400D6805F070652C4323438360DA
:100F60004968C36A23F470030B43C362E2E70000DD
:100F7000FDFCFFC0044908B50A6802430A6009681D
:100F80000140009108BD000030380240F0B50A6809
:100F90000F2692FAA2F2B2FA82F303248AE0012722
:100FA0009F4015EA07027DD04D68012D01D0022D2A
:100FB0001BD18D68876892FAA2FCBCFA8CFC4FEAC0
:100FC0004C0C04FA0CFC27EA0C0792FAA2FCBCFABF
:100FD0008CFC4FEA4C0C05FA0CF52F438760CD686A
:100FE0004768554397432F4347600F69D0F80CC0BB
:100FF00092FAA2F5B5FA85F54FEA450E04FA0EF518
:101000002CEA050C92FAA2F5B5FA85F56D00AF4011
:101010004CEA070CC0F80CC04D68022D33D192FA8F
:10102000A2F5B5FA85F5082D15D2D1F814C0056AD8
:1010300092FAA2F7B7FA87F7BF0006FA07F7BD439F
:1010400092FAA2F7B7FA87F7BF000CFA07FC45EA55
:101050000C05056217E0D1F814E0476A150A95FA05
:10106000A5FCBCFA8CFC4FEA8C0C06FA0CFC95FA39
:10107000A5F5B5FA85F5AD0027EA0C070EFA05FED1
:1010800047EA0E0747624D68076892FAA2FCBCFA6D
:101090008CFC4FEA4C0C04FA0CFE27EA0E0792FA7D
:1010A000A2F200E005E0B2FA82F2520095402F432E
:1010B00007605B1C0A681546DA407FF470AF0020B9
:1010C000F0BD10B5044600F095FA206000F068FA13
:1010D000606000F073FAA060606800F07DFAE06084
:1010E00010BD000001490860704700000C0000209E
:1010F0007FB50446C0680D460126C0F34030C0BB32
:10110000E9686868AA690843296911430843E168E6
:1011100049F20C6291430843E060A868216921F418
:101120004051014321616869616921F440710143C3
:1011300061616846FFF7C5FF0F48844208D00F4839
:1011400084420DD00E4884420AD00E48844201D118
:10115000039906E00C48844202D00C48844208D12E
:10116000029931B12B6823B100262046AA6900F00C
:101170000FF804B0304670BD00100140004400403C
:101180000048004000140140004C00400050004066
:101190002DE9F04106461920A1FB00011F4600235E
:1011A00064243225B2F5004F27D0BB0FBA00FFF7F9
:1011B00067F80146B0FBF4F06FF01802504301EB02
:1011C000800005EB0010B0FBF4F000F0F002B1FB82
:1011D000F4F002EB0012B1FBF4F06FF01803584387
:1011E00001EB800005EB0010B0FBF4F000F00F0005
:1011F000104480B2B060BDE8F081FA195B41FFF79E
:101200003FF80146B0FBF4F00201B1FBF4F06FF0DF
:101210001803584301EB800005EBC000B0FBF4F06D
:1012200000F0F80002EB4002B1FBF4F0584301EB90
:10123000800005EBC000B0FBF4F000F00700D7E73A
:1012400000F08ABB00B587B018216846FFF7B0F8F8
:101250000420FFF78FFE8020FFF78CFE0120FFF7B0
:1012600089FE08484FF400510A048261009101216F
:101270000022CDE90112CDE903216946FFF786FE80
:1012800007B000BD0008024010B58EB01C216846B2
:10129000FFF78EF8182107A8FFF78AF81F480168A2
:1012A00041F010010160006800F010000D901B4833
:1012B0001438016841F0010101600068002400F069
:1012C00001000D904FF4C0600790022008900320A9
:1012D000CDE909040720CDE90B4007A91048FFF725
:1012E00055FE4FF4E130CDE900040C200294CDE925
:1012F0000340059406940B4C69462046FFF7F8FE20
:10130000206920F490402061606920F02A0060612B
:10131000E06840F40050E0600EB010BD4438024078
:101320000000024000100140FEE7FEE710B500217A
:10133000074C0A46002004EBC1131A54401CC0B2EB
:101340008028FAD3491CC9B20829F3D310BD000084
:10135000B449002000B587B000214FF47A72002014
:10136000401C9042FCD3491C9142F8D31821684696
:10137000FFF71EF80F48016841F010010160006896
:101380004FF4A06100F0100006900B480A0482613F
:10139000009101210322CDE90112039104916946D4
:1013A000FFF7F4FD012000F0B5F8012000F0C0F8CF
:1013B00007B000BD303802400010024070B5002474
:1013C0000646802525FA04F0304000D0012000F0C8
:1013D000AFF8012000F09EF8002000F09BF8641C9C
:1013E000E4B2082CEED3012000F094F8BDE8704080
:1013F000002000F08FB810B5012000F099F801200E
:1014000000F088F8002000F093F8BDE810400020BC
:1014100000F080B810B5002000F08AF8012000F03C
:1014200079F8BDE81040012000F082B810B5FFF750
:1014300091FFAE2000F08AF8D52000F087F88020D8
:1014400000F084F8A82000F081F83F2000F07EF83A
:10145000D32000F07BF8002000F078F8402000F066
:1014600075F8A12000F072F8C82000F06FF8DA20BB
:1014700000F06CF8122000F069F8812000F066F8A6
:10148000CF2000F063F8D92000F060F8F12000F0E0
:101490005DF8DB2000F05AF8302000F057F8A42067
:1014A00000F054F8A62000F051F88D2000F04EF81E
:1014B000142000F04BF8AF2000F048F8FFF736FF9B
:1014C000BDE8104000F012B810B50C4640F0B00076
:1014D00000F03CF8102040EA141000F037F804F057
:1014E0000F00BDE8104000F031B8000070B5084DA5
:1014F000002400212046FFF7E7FF05EBC410802100
:1015000000F035F8641CE4B2082CF2D370BD000082
:10151000B449002005494FF4806208B18A6102E0B5
:101520004FF080608861012000F044BF001002404D
:1015300005494FF4807208B18A6102E04FF0807073
:101540008861012000F036BF0010024010B504464B
:10155000FFF751FF7820FFF731FF0020FFF72EFF44
:101560002046FFF72BFFBDE81040FFF753BF70B5D3
:101570000D460646FFF73FFF7820FFF71FFF40208C
:10158000FFF71CFF002404E0305DFFF717FF641C29
:10159000E4B2AC42F8D3BDE87040FFF73BBF0000B7
:1015A00004490968044A01F0F0010909515CC84086
:1015B0007047000008380240E43D0008044909680B
:1015C000044A01F4E05102EB91210978C8407047C8
:1015D00008380240F43D000804490968044A01F44F
:1015E000604102EB51310978C84070470838024029
:1015F000F43D00080748006810F00C01064807D0C9
:10160000042904D0082903D1082000F009B80348B0
:1016100070470000083802400024F40040787D0143
:1016200010B5104A04460020116811F480030E49D9
:1016300003D0B3F5800F00D10C49082C11D11068EC
:1016400000F03F00B1FBF0F01168C1F3881148438E
:101650001168012201F4403102EB11414900B0FB55
:10166000F1F010BD043802400024F40040787D0100
:1016700010B54FF0E020006902F0FEF9012803D018
:10168000BDE8104001F02CBF10BD000070B52E4821
:10169000016821F0070141F005010160016801F0D6
:1016A00007010529FAD12949086840F480400860FB
:1016B0002748026842F4803202600268C2F3404266
:1016C000002AFAD0224A234B121D1468224D2C40C6
:1016D00023431360136823F440331360026842F01D
:1016E000807202600268C2F34062002AFAD0486841
:1016F000C0F380300028FAD015480830016821F086
:10170000F0010160016821F4E05141F4A051016051
:10171000016821F4604141F400410160016821F059
:10172000030141F002010160016801F00C01082988
:10173000FAD10A48FFF7D6FC0F20FFF75FF900281F
:1017400001D072B6FEE770BD003C02400070004060
:1017500000380240195440000080BFFF007A030A9D
:101760000248016841F470010160704788ED00E0B3
:101770000148FFF7C8BA00009800002010B5064CD9
:10178000206910F0010F05D004A000F0F9F86FF007
:101790000100206110BD00000010004054494D368A
:1017A000E6ADA3E59CA8E8BF90E8A18C2CE4BC982A
:1017B000E58588E7BAA7E4B8BA3A360D0A00000012
:1017C00010B5064C206910F0010F05D004A000F000
:1017D000D7F86FF00100206110BD00000014004038
:1017E00054494D37E6ADA3E59CA8E8BF90E8A18C2D
:1017F0002CE4BC98E58588E7BAA7E4B8BA3A340D7A
:101800000A000000F0B50268294C2A4D2A4E2B4FE1
:101810002B4B4FF0804CA04209D0604507D0A84226
:1018200005D0B04203D0B84201D0984204D122F092
:10183000700E4A6842EA0E02A0421BD0604519D0E1
:10184000A84217D0B04215D0B84213D0984211D058
:101850001C4DA8420ED01C4DA8420BD01B4DA842D7
:1018600008D01B4DA84205D01A4DA84202D01A4DEF
:10187000A84203D122F44075CA682A434D6922F078
:1018800080022A4302608A68C2620A688262A042B9
:1018900001D0984201D109690163012141610169C7
:1018A000C90703D0016921F001010161F0BD000009
:1018B000000001400004004000080040000C00400F
:1018C0000004014000400140004401400048014044
:1018D00000180040001C0040002000404FF47A74C3
:1018E00003A000F04DF8204601F0C6FBF8E7000029
:1018F0005461736B20412069732072756E6E696E3E
:10190000670A00004FF4FA6403A000F039F820469B
:1019100001F0B2FBF8E700005461736B20422069CC
:10192000732072756E6E696E670A00004FF4FA7468
:1019300003A000F025F8204601F09EFBF8E7000028
:101940005461736B20432069732072756E6E696EEB
:10195000670A0000FEE700001CB500211820CDE951
:1019600000010B46802202A1044802F02DF81CBDA4
:101970005365747570205461736B00006D2D000801
:101980000FB4054B10B503A9044A029800F0DAF829
:1019900010BC5DF814FB0000E12300089400002057
:1019A0000907090E002804DB00F1E02080F800148C
:1019B000704700F00F0000F1E02080F8141D704720
:1019C00002E008C8121F08C1002AFAD17047704708
:1019D000002001E001C1121F002AFBD17047000066
:1019E0002DE9FF5FDDE90220010DDDF838B002438B
:1019F00018D044F61050A1F2FF3141430D140F9856
:101A0000012820D0A5EB0B00401C5FEA000A4FF034
:101A10000004474EDFF81C91A046504616D5CAF187
:101A2000000728E00F98012443A2012808D00021D4
:101A300000980F9BC0E90021C0E90243BDE8FF9F69
:101A40006FEA0B01F4E7CBF10000DEE7074612E096
:101A5000F80707D02246334640464946FEF75AFD6E
:101A6000804689462246334610461946FEF752FD07
:101A700004460E467F10002FEAD1DDE90201BAF1DB
:101A8000000F42464B4602DAFEF744FD01E0FEF746
:101A9000B3FD04460E460022284BFEF71DFE03D878
:101AA0004FF0FF30014607E00022254B204631462B
:101AB000FEF789FCFEF7CCFE102409E0002C0ADBBF
:101AC0000A220023FEF7DCFB019B30321A55641E0C
:101AD00050EA0102F2D1641C019AC4F111031444CA
:101AE0000F9A012A03D0012208430DD10AE00843CE
:101AF00004D000204FF0110B0F9080E7A3EB0B05F3
:101B00006D1E0DE05B4504DD4FF0000205F101059F
:101B100004E003DA4FF00002A5F10105002AECD041
:101B200000980F99C0E90231C0E9004586E700003E
:101B3000000024400000F03F300000000000F043AF
:101B40000000E03F2DE9FF4F95B09B4689460646D1
:101B500000250FE2252877D100242746F84A0121E5
:101B6000059400E0044316F8013F203B01FA03F01E
:101B70001042F7D130782A2811D06FF02F03307837
:101B8000A0F13002092A16D8059A44F0020402EBAB
:101B9000820203EB42021044761C0590EFE759F8ED
:101BA000042B0592002A03DA504244F400540590B5
:101BB00044F00204761C30782E2816D116F8010F56
:101BC00044F004042A280DD06FF02F023078A0F1E1
:101BD0003003092B09D807EB870302EB4303C7182F
:101BE000761CF3E759F8047B761C30786C280FD00C
:101BF00006DC4C2817D068280DD06A2814D104E0E0
:101C0000742810D07A280FD10DE044F400140AE0B3
:101C100044F4801401E044F440147278824202D10A
:101C200004F58014761C761C307866280BD013DC03
:101C3000582877D009DC002875D04528F6D04628EA
:101C4000F4D047281AD19DE118E0632835D06428E4
:101C500079D0652812D195E1702873D008DC672807
:101C6000F1D069286FD06E280DD06F2806D1B5E06D
:101C700073282CD0752875D0782874D05A461799B7
:101C800090476D1C75E1C4F30250022809D0032867
:101C90000DD0D9F8001004280DD00D6009F1040909
:101CA00067E1D9F80010EA17C1E90052F6E7D9F860
:101CB00000100D80F2E70D70F0E719F8041B8DF8A5
:101CC000001000208DF80100EA46012003E059F8D9
:101CD00004AB4FF0FF3061074FF0000102D40DE07C
:101CE00008F101018846B9420FDA8045F8DB1AF89D
:101CF00008100029F4D108E008F10101884681426A
:101D0000FADB1AF808100029F6D105985B46A0EB1B
:101D1000080721463846179A00F094FA284400EB49
:101D2000080507E04DE029E10DE01AF8010B5A46DD
:101D300017999047B8F10108F7D25B46214638461B
:101D4000179A13E142E00A220092C4F302524FF0C4
:101D5000000A022A08D059F804CB032A4FEAEC7192
:101D60000AD00DE029E02AE009F1070121F007027D
:101D7000F2E802C1914609E00FFA8CFC4FEAEC71DF
:101D8000042A03D14FFA8CFC4FEAEC71002907DAE0
:101D90000A460021DCF1000C61EB02012D2202E079
:101DA000220504D52B228DF80420012203E0E2074E
:101DB00001D02022F7E7904659E00A2102E01022E4
:101DC0000DE010214FF0000A00910BE010224FF0BF
:101DD000000A44F004040827009203E008224FF0B0
:101DE000000A0092C4F30252022A05D059F804CB2B
:101DF0000021032A08D009E009F1070121F00702B8
:101E0000F2E802C1914605E01FFA8CFC042A01D1D8
:101E10000CF0FF0C4FF00008220728D5702806D0E0
:101E2000009B83F0100353EA0A0305D00EE0402222
:101E30008DF80420012208E05CEA010206D030227D
:101E40008DF804208DF8050002229046009B83F057
:101E5000080353EA0A030AD15CEA010201D16207CE
:101E600005D530228DF804204FF001087F1E582838
:101E700004D034A003900EA802900DE036A0F9E73C
:101E800053466046009AFEF7FBF984460398825C4D
:101E90000298401E029002705CEA0100F0D10298A4
:101EA00006A9081A00F1200A600702D524F480343C
:101EB00000E00127574502DDA7EB0A0000E0002003
:101EC00000EB0A01009005984144401A0590E00398
:101ED00006D45B462146179A059800F0B3F90544ED
:101EE000002706E001A85A46C05D179990476D1C6F
:101EF0007F1C4745F6DBE0030CD55B462146179A6D
:101F0000059800F09FF9054404E030205A461799DF
:101F100090476D1C0099481E00900029F5DC08E0F0
:101F2000029802995A460078491C029117999047E5
:101F30006D1CBAF10001AAF1010AF1DC65E10000B3
:101F4000092801003031323334353637383961628F
:101F50006364656600000000303132333435363753
:101F600038394142434445460000000000F058F92A
:101F70000544761C307800287FF4ECAD19B0284673
:101F8000BDE8F08F620700D4062709F1070222F0AE
:101F9000070CFCE80223E14603F000485FEA080C66
:101FA00002D00FF2702C0DE05FEA045C02D50FF254
:101FB000682C07E05FEAC47C02D00FF2602C01E0DD
:101FC000AFF2700C4FF0FF3823F00043CDF850C053
:101FD00065280CD006DC452809D046281DD04728A6
:101FE0003DD13DE0662818D067287ED138E0002139
:101FF000112F01DB112000E0781CCDE9000106A9BA
:102000000EA8FFF7EDFCDDE90F010E9A0391002108
:10201000009207F1010A04914DE04FF00040009753
:10202000CDE9011006A90EA8FFF7DAFCDDE90F02E1
:1020300003920E9B11990022DDF80CA000930492EC
:1020400011B9791C00EB010AB7EB0A0004D4C0F106
:10205000FF3007F1010A0490AAEB0700019044E069
:10206000012F00DA01270021112F01DD112000E0EE
:102070003846CDE9000106A90EA8FFF7B1FCDDE95D
:102080000F010E9A0391002104910092BA46210794
:102090000CD40399514500DA8A46BAF1010F05DDE7
:1020A000009AAAF10101515C302908D0B84202DA45
:1020B00010F1040F06DA0121CDE9011015E0AAF1B3
:1020C0000101E9E7002805DC049901440491AAEB29
:1020D000000102E0411C514500DD8A460499401A86
:1020E000401C01904FF000400290200704D401985A
:1020F000504501DBCDF8048000208DF84F00029898
:102100000DF14F07B0F1004F25D02B200E90029813
:102110004FF0020800280CDA404202902D200E9069
:1021200007E00A210298FEF7EFFA3031029007F833
:10213000011DB8F10001A8F10108F2DC02980028A5
:10214000EFD1791E0E980870307800F0200040F032
:10215000450007F8020D12A8C01B00F107081498EB
:10216000007800B1012000EB0A01019801EBE07159
:1021700005984144401A401E0590E00306D45B4692
:102180002146179A059800F05DF8054414980078E8
:1021900018B15A46179990476D1CE00324D55B4649
:1021A0002146179A059800F04DF805441CE0049864
:1021B000002807DBDDE90301884203DD0098405C6D
:1021C000179901E0179930205A469047049805F175
:1021D0000105401C04900198401E019004D12E205E
:1021E0005A46179990476D1CBAF10001AAF1010AED
:1021F000DDDC05E017F8010B5A46179990476D1C76
:10220000B8F10001A8F10108F4DC5B462146179AF9
:102210000598ABE62D0000002B0000002000000018
:102220002DE9F041044600251E461746880404D4D3
:1022300005E039462020B0476D1C641EF9D52846BC
:10224000BDE8F0812DE9F041044600251E46904688
:10225000C80301D5302700E02027880404D505E015
:1022600041463846B0476D1C641EF9D52846BDE886
:10227000F08140684968401A704700002DE9F0413C
:102280000E460546144B0C22FEF72BF813A0FFF761
:1022900077FB00240AE000BF04EB440005EB80005C
:1022A000D0E9012116A0FFF76BFB641CB442F3DBFD
:1022B00000240DE004EB440705EB8700D0E9012181
:1022C00017A0FFF75DFB55F8270000F085FF641CA1
:1022D000B442EFDBBDE8F081732200085461736BF8
:1022E0007320736F7274656420627920657865630A
:1022F0007574696F6E2074696D653A0A000000009C
:102300005461736B3A2025732C204578656375748E
:10231000696F6E2054696D653A2025640A000000DB
:102320005374617274696E67205461736B202573F6
:10233000207769746820657865637574696F6E20AD
:1023400074696D653A2025640A00000010B54408E0
:102350000E4894B00021026842F004020260006856
:1023600000F0040012900A480090601ECDE90101BF
:102370004FF6FF70CDE903016846FEF719FC684689
:10238000FEF744FC0348046014B010BD403802401E
:10239000000800409000002070B5054600244FF46E
:1023A0007A7603E0304600F005F8641CAC42F9D3BD
:1023B00070BD0000094910B50A684FF6FF7392B26C
:1023C0009B1A06E00C68944203D20C681C448442B9
:1023D00003D20C68A41A8442F4D310BD2408004030
:1023E000044AC1B251601168C1F3C0110029FAD08A
:1023F0007047000000100140FEF7E6FAFEF72AFDE4
:10240000FFF744F9FEF71EFFFEF73EFFA820FFF797
:102410009DFFFEF747FA6420FFF7BEFFFFF706F8BF
:1024200000F00EF803A0FFF7ABFAFEF709FF00F08B
:1024300019F8FEE75461736B20696E69740D0A0028
:10244000EFF3058010B16FF0050070470448016894
:1024500011B14FF0FF30704701210160002070473B
:102460006000002010B5EFF3058010B16FF005009B
:1024700010BD08480168012902D04FF0FF3010BD9F
:10248000054A002182F8141D0221016000F0E2FEDD
:10249000002010BD600000200BE000E02DE9F041BD
:1024A000134C0F460546E6682068001D00F0B0FC9E
:1024B000681C07D137B12168BDE8F0410D48091DFE
:1024C00000F0F6BC20683544B5424560216805D26D
:1024D000A06BBDE8F041091D00F0D2BC606B091D86
:1024E00000F0CEFCA06A854200D2A562BDE8F08172
:1024F00010000020D00500202DE9F041054600F035
:10250000E3FC2D4CA068401CA06020682B4F10B14C
:10251000606930B32BE02560A068012827D1002630
:1025200006EB860007EB800000F09CFC761C382E42
:10253000F6D3234800F096FC2148143000F092FCBA
:102540001F48283000F08EFC1D483C3000F08AFC0B
:102550001B48503000F086FC194860631430A063BB
:1025600005E02068E96AC06A884200D82560606A90
:10257000401C60626864E86A2169884200D9206171
:1025800000EB800007EB8000291D00F091FC00F0BB
:10259000BBFC606900280CD02068E96AC06A8842E8
:1025A00007D208494FF080500860BFF34F8FBFF348
:1025B0006F8FBDE8F0810000100000202001002096
:1025C0008005002004ED00E038B500F07DFC104CE3
:1025D0002068C8B90F4800F045FC0E48143000F0E0
:1025E00041FC0C48E060143020610A4B0020F03BB5
:1025F000009003F1500210210A2000F087FF2060B4
:1026000010B105A100F002FDBDE8384000F07CBC2F
:102610004C000020D4060020546D725100000000D0
:1026200030B4026C0B46002A0BD0C1681144C16063
:102630008468A14201D30168C16030BC1846FDF72F
:102640009EBE30BC70472DE9F041856B17460446AD
:102650000026026C82B1C7B1E068FDF790FEE16828
:10266000206C091AE1602268914202D2A168081A1E
:10267000E060022F16D017E02068A8B9A06801F02A
:1026800073FA06460020A0600EE06068FDF777FE52
:10269000216C606808446060A168884204D32068A7
:1026A000606001E005B16D1E6D1CA5633046BDE89C
:1026B000F08110B5044690F8590058B101280CD0AB
:1026C00002280FD0502080F31188BFF34F8FBFF343
:1026D0006F8FFEE7206B00F02BFC2046BDE810401A
:1026E00000F026BC10BD000010484FF470514207A6
:1026F00006D0C01D0D4920F00700411AC1F57051E8
:102700000B4A00230144C2E900030839183A21F0BA
:10271000070111604B600B600B1AC0E90013936056
:102720004FF000405360506170470000B40D00202E
:102730007C000020144E154CA6F29C474FF08058A8
:10274000DFF84C9012E000BF00F0BEFBF068C568F7
:10275000281D00F05DFBA068401EA0606068401E60
:10276000606000F0D1FB2846FFF7A3FF60680028F7
:10277000EAD138680128F9D9C9F80080BFF34F8F32
:10278000BFF36F8FF2E70000BC05002010000020AF
:1027900004ED00E070B51D46049C51B1C4F8002062
:1027A000C4E90F010121204600F0E4FE84F84C50FA
:1027B00070BD2460F4E700002DE9F05F8846DDE994
:1027C0000B941546834691009A460A9EA522206BDB
:1027D000FDF7E7FD6FF00301206B01EB8501084475
:1027E00020F00707780707D0502080F31188BFF347
:1027F0004F8FBFF36F8FFEE70025B8F1000F0FD0AA
:102800005FF00000221818F8001082F8341018F851
:10281000001011B1401C1028F4D384F8435001E09B
:1028200084F83450382E00D33726E662C4E91365A5
:10283000201D00F022FB04F1180000F01EFB2461B3
:10284000C6F138006462A061656584F8585052464C
:102850005946384600F074FA2060B9F1000F01D0F3
:10286000C9F80040BDE8F09F30B5114900E01146BD
:102870000A688242FBD34B685C18844203D14068EB
:1028800018444860084643681C18944209D1084C13
:10289000183C2468A24209D052681A4442600A686F
:1028A00012680260814200D0086030BD0460F9E720
:1028B0007C00002070B5002441600B4D0061914206
:1028C00006D8D11A8269914206D2011D286907E013
:1028D0009A4203D2994201D3012403E0011DE86822
:1028E00000F0CEFA204670BD4C00002010B5044622
:1028F00000F0EAFAA06B28B15FF0000400F004FBDE
:10290000204610BD0124F9E730B589B03C4D6EE09A
:102910000498002806DADDE90601059A9047049834
:10292000002864DB069C606910B1201D00F070FA7D
:1029300003A800F0D7F8024604980A2857D2DFE827
:1029400000F00505052D334A05052D3394F82800C0
:1029500040F0010084F828000599A069059B014416
:102960002046FFF7A7FF68B3216A2046884794F8FE
:10297000280040073BD5002000900598A16900235E
:1029800042181946204601F0F9F9D8B9502080F3D1
:102990001188BFF34F8FBFF36F8FFEE714F8280F36
:1029A00020F00100207022E094F8280040F001009F
:1029B00084F828000598A06128B1811813462046A4
:1029C000FFF778FF13E0502080F31188BFF34F8F9B
:1029D000BFF36F8FFEE794F82800810703D42046E9
:1029E00000F0A6FA03E020F0010084F8280000229D
:1029F00004A9286800F012FF002889D109B030BD71
:102A00004C0000202DE9FC410F46054600F0B4FCC7
:102A100001A800F067F80446019818B101F01CF90C
:102A2000BDE8FC81254EAFB130690068D0B3002706
:102A3000291B3A46306800F0FDFA01F00DF9002834
:102A4000EED11F494FF080500860BFF34F8FBFF3A6
:102A50006F8FE5E7A542EBD801F0FEF8F068274656
:102A6000C068C468201D00F0D3F994F8280041071D
:102A700019D5A0692B4641193A462046FFF71AFF9F
:102A8000A8B100200346014600902A46204601F0E6
:102A900075F960B9502080F31188BFF34F8FBFF3F1
:102AA0006F8FFEE707E020F0010084F82800216A1C
:102AB00020468847B4E70127BAE700004C00002011
:102AC00004ED00E00648416B096829B1416BC96813
:102AD000C9684968816270474FF0FF31FAE700002A
:102AE0001000002070B5054600F0D4FF064E0446E5
:102AF000B068844203D200F009F8012000E0002011
:102B000028602046B46070BD4C000020F8B5194D17
:102B100020E0C068C4680668201D00F079F9216AC9
:102B20002046884794F82800400713D5A069304410
:102B3000B04206D924616060211DE86800F0A0F968
:102B400008E000200346014600903246204601F08E
:102B500015F938B1E86801680029DAD12969C5E9B1
:102B60000310F8BD502080F31188BFF34F8FBFF3DF
:102B70006F8FFEE74C00002008484068401C4FF073
:102B8000500080F3118804D0BFF34F8FBFF36F8FD5
:102B9000FEE7BFF34F8FBFF36F8FFEE78400002087
:102BA000002150B10A4B42699A420FD1806AA3F1C9
:102BB000280290420AD040B108E0502080F31188EA
:102BC000BFF34F8FBFF36F8FFEE7012108467047B9
:102BD000D0050020074CE068016841B1C0680021C1
:102BE000D0F80000FFF70EFFFFF78EFEF3E701219C
:102BF0000020F7E74C0000202DE9F041044600F0EA
:102C000063F994F9455004F1240609E0606A48B17B
:102C1000304600F0E9FF08B100F0A4FA6D1E6DB275
:102C2000002DF3DC4FF0FF3684F8456000F06CF9BE
:102C300000F04AF994F9445004F1100709E02069C2
:102C400048B1384600F0D0FF08B100F08BFA6D1E95
:102C50006DB2002DF3DC84F84460BDE8F04100F073
:102C600053B900002DE9F0410546002700F084FB30
:102C7000324E306808B9FFF737FD706905424ED112
:102C8000C5B3083568070ED005F00700C0F108008D
:102C90000544680707D0502080F31188BFF34F8F99
:102CA000BFF36F8FFEE72DB37068854237D8234896
:102CB000183001460C6801E020460C466168A942C4
:102CC00002D221680029F7D131688C4227D00768E9
:102CD0002168016060680837411B10290FD960190D
:102CE000420708D0502080F31188BFF34F8FBFF305
:102CF0006F8FFEE713E041606560FFF7B5FD616827
:102D00007068401A7060B268904200D2B06070691A
:102D100001430020C4E90001F068401CF06000F0AD
:102D20009BFF780707D0502080F31188BFF34F8FA7
:102D3000BFF36F8FFEE73846BDE8F08164000020E6
:102D400010B5031F4FF080741C601B1F21F00101A0
:102D50001960191F044B0B6014390A60091F6FF0CA
:102D6000020244380A6010BD792B000870B58EB09D
:102D70000DA81824CDE90040002380221AA11C4888
:102D800000F022FE0CA8CDE900400023802219A10A
:102D90001A4800F019FE0BA8CDE90040002380225C
:102DA00017A1194800F010FE2422184902A8FDF7C7
:102DB000E6FA0D9802900C9805900B9803250024D4
:102DC00002AE089004EB440056F8200000F086FAAA
:102DD000641CAC42F6DB294602A8FFF74FFA00203C
:102DE00000F070F90EB070BD5461736B41000000CB
:102DF000DD1800085461736B4200000005190008DB
:102E00005461736B430000002D190008FC3D00085D
:102E1000D0E9013201699A60D0E901235A604A6819
:102E2000824201D182684A60002202610868401E25
:102E30000860086870470000034B036003F15C0002
:102E40000860802010607047FC060020044B03607F
:102E500003F15C0008604FF4807010607047000060
:102E60005809002000F108014FF0FF32C0E90112BB
:102E7000C16001610021016070470021016170475C
:102E800030B50B685A1C02D000F1080202E002695A
:102E900004E02246546825689D42FAD953684B6085
:102EA00099608A60516008610168491C016030BD09
:102EB00042684A6093688B609368596091600861CA
:102EC0000168491C01607047502080F31188BFF3EE
:102ED0004F8FBFF36F8F0A494868401C4860012834
:102EE0000CD10848006810F0FF0F07D0502080F385
:102EF0001188BFF34F8FBFF36F8FFEE7704700005D
:102F00008400002004ED00E00849486828B1401E14
:102F1000486001D180F311887047502080F31188F8
:102F2000BFF34F8FBFF36F8FFEE7000084000020D8
:102F300070B500282AD0164DA0F1080460686969B0
:102F4000084207D1502080F31188BFF34F8FBFF3A1
:102F50006F8FFEE722683AB1502080F31188BFF3EB
:102F60004F8FBFF36F8FFEE78843606000F004FA75
:102F700060686968084468602046FFF775FC286946
:102F8000401C2861BDE8704000F066BE70BD0000C6
:102F9000640000204FF0E0200021016181610549BB
:102FA0004FF47A720968B1FBF2F1491E41610721C1
:102FB000016170470C00002010B5FDF74BF9114975
:102FC00010280ED300F1E02090F8F0030A78904228
:102FD00007D2502080F31188BFF34F8FBFF36F8F5C
:102FE000FEE709480068896800F4E060884207D974
:102FF000502080F31188BFF34F8FBFF36F8FFEE730
:1030000010BD0000840000200CED00E010B5084B5E
:10301000002200BF53F832401CB1521C082AF9D3D9
:1030200010BD43F8321003EBC201486010BD000030
:10303000E000002070B515460E460446FFF744FF39
:1030400094F944100020491C01D184F8440094F9FB
:103050004510491C01D184F84500FFF755FFA06BCE
:1030600028B92A46314604F1240000F099F8204698
:10307000BDE87040FFF7C0BD10B5020014D00F4886
:10308000006B38B1502080F31188BFF34F8FBFF32E
:103090006F8FFEE700F070F900211046FFF7FEF990
:1030A00000F0DAFD002807D105494FF08050086094
:1030B000BFF34F8FBFF36F8F10BD000010000020D3
:1030C00004ED00E070B50546FFF7FEFE1E4C05B9A5
:1030D0002568281DFFF79CFEA86A18B105F11800A5
:1030E000FFF796FE606A401C60622068854207D147
:1030F000291D1648FFF7DCFE6068401C606007E091
:10310000A068401EA0602846FFF7D3FAFFF7DAFC5C
:10311000FFF7FAFE6069002814D02068854211D1BB
:10312000206B38B1502080F31188BFF34F8FBFF36D
:103130006F8FFEE706494FF080500860BFF34F8F56
:10314000BFF36F8F70BD000010000020BC05002091
:1031500004ED00E002490A6A0260C96841607047F4
:103160001000002001490120C861704710000020B4
:1031700010B50C4650B1094909681831FFF780FEB7
:103180002046BDE810400121FFF788B9502080F3A8
:103190001188BFF34F8FBFF36F8FFEE71000002041
:1031A00070B514460D4668B10A4909681831FFF731
:1031B0007FFE0CB14FF0FF3521462846BDE8704038
:1031C000FFF76CB9502080F31188BFF34F8FBFF326
:1031D0006F8FFEE71000002070B504002AD01A4D52
:1031E000286884422ED0FFF76FFE2046FFF7D8FCF8
:1031F000E0B1201DFFF70CFEE06A2969884200D982
:103200002861124900EB800001EB8000211DFFF7CF
:103210004FFEE06A2968C96A884207D30C494FF01B
:1032200080500860BFF34F8FBFF36F8FBDE87040D1
:10323000FFF76ABE502080F31188BFF34F8FBFF3B2
:103240006F8FFEE770BD00001000002020010020FD
:1032500004ED00E030B587B00024039405AA04A96A
:1032600003A80494FFF7E8FDDDE903010094CDE92C
:103270000110002315A11748059A00F0D2FB164D46
:103280000028E8621FD000F049FD012809D0401C49
:1032900019D1502080F31188BFF34F8FBFF36F8F88
:1032A000FEE7502080F31188BFF34F8FBFF36F8F7D
:1032B0004FF0FF30A86201206861EC6007B0BDE804
:1032C000304000F093B807B030BD000049444C4591
:1032D00000000000352700081000002070B50446EB
:1032E000FFF7F2FD214D04B92C68201DFFF790FD7A
:1032F000A06A18B104F11800FFF78AFD211D1C48CF
:10330000FFF7D6FD94F858000026012801D184F873
:103310005860FFF7F9FD686928B1FFF7D5FDFFF7A1
:10332000D1FBFFF7F1FD2868844213D1686990B1A1
:10333000286B38B1502080F31188BFF34F8FBFF353
:103340006F8FFEE70B494FF080500860BFF34F8F3F
:10335000BFF36F8F70BD06480068A968884201D12D
:103360002E6070BDBDE8704000F00EB81000002067
:10337000D005002004ED00E00248016B491C016308
:103380007047000010000020164810B5016B11B105
:103390000121C16110BD0021C1610169124A01E032
:1033A000B9B1491E01EB810352F82330002BF7D04D
:1033B00001EB810302EB830202F1080453685B68AE
:1033C0005360A34201D15B685360DA680260016117
:1033D00010BD502080F31188BFF34F8FBFF36F8F64
:1033E000FEE7000010000020200100201CB5374837
:1033F0000168374A914207D1502080F31188BFF30A
:103400004F8FBFF36F8FFEE700683149491E884236
:1034100007D1502080F31188BFF34F8FBFF36F8F18
:10342000FEE72C4908780190FF20087008788DF895
:1034300000009DF800009DF8002000F0F000904290
:1034400007D0502080F31188BFF34F8FBFF36F8FE9
:10345000FEE79DF80000204C00F05000207007208F
:10346000A06005E09DF8002052008DF80020401E6D
:103470009DF800201206F5D4A060032807D0502044
:1034800080F31188BFF34F8FBFF36F8FFEE74FF4C8
:103490004070A060019808700C482030016841F429
:1034A00070010160016841F070410160FFF772FD39
:1034B00000206060FCF796FE0848016841F040413A
:1034C0000160FCF77BFE00201CBD000000ED00E069
:1034D00071C20F4100E400E08400002034EF00E0FE
:1034E00010B5502080F31188BFF34F8FBFF36F8F5B
:1034F00000F0D6FA18B104494FF08050086000205F
:1035000080F3118810BD000004ED00E038B5049D83
:1035100018B153B1CAB181B120E0502080F31188B5
:10352000BFF34F8FBFF36F8FFEE7502080F31188FA
:10353000BFF34F8FBFF36F8FFEE7502080F31188EA
:10354000BFF34F8FBFF36F8FFEE739B1502080F389
:103550001188BFF34F8FBFF36F8FFEE750241C46D7
:10356000012384F846302B460094FFF713F92046D8
:1035700038BD000070B50D46040025D0FFF7A4FC4F
:10358000D4E90F20216802FB0011A1600021A16392
:10359000216861600A46D4E90F01401E00FB012149
:1035A000E16021464FF0FF3001F8440F487004F10C
:1035B00010008DB1FFF756FC04F12400FFF752FC18
:1035C000FFF7A2FC012070BD502080F31188BFF3EB
:1035D0004F8FBFF36F8FFEE721690029F0D000F015
:1035E00003FB0028ECD004494FF080500860BFF383
:1035F0004F8FBFF36F8FE3E704ED00E02DE9FF4746
:1036000082B01D468A464FF00008040003D0BAF18C
:10361000000F08D011E0502080F31188BFF34F8FC6
:10362000BFF36F8FFEE7206C38B1502080F3118814
:10363000BFF34F8FBFF36F8FFEE7022D0AD1E06B10
:10364000012807D0502080F31188BFF34F8FBFF3BC
:103650006F8FFEE700F010FA3F4F4FF000094FF078
:10366000805648B9049838B1502080F31188BFF3D0
:103670004F8FBFF36F8FFEE7FFF726FCA06BE16B68
:10368000884207D3022D05D00498D0B1B8F1000FBD
:103690001AD01EE02A4651462046FEF7D4FF616A42
:1036A00019B104F1240000F09FFA20B13E60BFF38D
:1036B0004F8FBFF36F8FFFF727FC012006B0BDE8E7
:1036C000F087FFF721FC22E06846FFF743FD4FF04B
:1036D0000108FFF719FCFFF74FFEFFF7F5FB94F920
:1036E0004400401C01D184F8449094F94500401CEA
:1036F00001D184F84590FFF707FC04A9684600F063
:1037000029F930B12046FFF777FA00F0A5FA00203A
:10371000D4E7FFF7D9FBA06BE16B884213D1FFF729
:10372000F3FB04F110000499FFF722FD2046FFF798
:1037300063FA00F091FA00289ED13E60BFF34F8FEC
:10374000BFF36F8F98E7FFF7DFFB2046FFF754FAD0
:1037500000F082FA90E7000004ED00E02DE9F04768
:103760001F4690468946040003D0B9F1000F08D0E7
:1037700011E0502080F31188BFF34F8FBFF36F8F9C
:10378000FEE7206C38B1502080F31188BFF34F8FD3
:10379000BFF36F8FFEE7022F0AD1E06B012807D03D
:1037A000502080F31188BFF34F8FBFF36F8FFEE778
:1037B000FFF702FC5020EFF3118680F31188BFF36E
:1037C0004F8FBFF36F8FA06BE16B884206D3022F40
:1037D00004D0002086F31188BDE8F08794F94550A5
:1037E000A06B3A4649462046FEF72DFF681C04D0E0
:1037F0006D1C84F845500120ECE7606A0028FAD07F
:1038000004F1240000F0F0F90028F4D0B8F1000F22
:10381000F1D00121C8F80010EDE700002DE9F747CD
:10382000002683B08A46040003D0BAF1000F08D006
:1038300011E0502080F31188BFF34F8FBFF36F8FDB
:10384000FEE7206C38B1502080F31188BFF34F8F12
:10385000BFF36F8FFEE700F00FF9DFF8F4804FF051
:1038600000094FF0805748B9059838B1502080F3CF
:103870001188BFF34F8FBFF36F8FFEE7FFF724FB75
:10388000A56BC5B151462046FEF7CAFE6D1EA56365
:10389000206950B104F1100000F0A6F928B1C8F871
:1038A0000070BFF34F8FBFF36F8FFFF72DFB012029
:1038B00006B0BDE8F087059808B11EB106E0FFF735
:1038C00023FB27E06846FFF745FC0126FFF71CFBBA
:1038D000FFF752FDFFF7F8FA94F94400401C01D1BC
:1038E00084F8449094F94500401C01D184F8459037
:1038F000FFF70AFB05A9684600F02CF800282046CF
:103900000AD0FFF779F900F0A7F92046FEF7EEFF9D
:103910000028B3D00020CBE7FEF7E8FF90B104F118
:1039200024000599FFF724FC2046FFF765F900F015
:1039300093F90028A2D1C8F80070BFF34F8FBFF3EE
:103940006F8F9BE72046FFF757F900F085F995E761
:1039500004ED00E02DE9F0410C46050011D0C4B1A2
:10396000FFF7B2FA174BDA686E682068911B471CA4
:1039700017D02F681B6A9F4219D0964217D801248E
:1039800010E0502080F31188BFF34F8FBFF36F8F8B
:10399000FEE7502080F31188BFF34F8FBFF36F8F86
:1039A000FEE70024FFF7B0FA2046BDE8F081884228
:1039B00005D9401A20602846FFF7CCFBF1E700202C
:1039C0002060DCE7100000202DE9FF5F8346DDE981
:1039D0000E87994616468A469000FFF743F9050080
:1039E0001CD05C20FFF73EF9040014D000202563B2
:1039F00084F85900CDE90240CDE900874B463246B4
:103A000051465846FEF7D8FE2046FEF775FD0120C8
:103A100004B0BDE8F09F2846FFF78AFA4FF0FF3068
:103A2000F6E7F0B585B0DDE90B640A9DA6B1DCB11F
:103A30005C2700972663022684F85960002604AFAD
:103A4000CDE90246CDE90057FEF7B6FE2046FEF767
:103A500053FD049805B0F0BD502080F31188BFF3EA
:103A60004F8FBFF36F8FFEE7502080F31188BFF3B5
:103A70004F8FBFF36F8FFEE70548416919B1006BA7
:103A800018B10020704701207047022070470000E5
:103A9000100000200148C06870470000100000209E
:103AA0002DE9F0412E4C0027206B28B1A069401C65
:103AB000A0613846BDE8F081E668761CE66013D167
:103AC000606B006838B1502080F31188BFF34F8FCE
:103AD000BFF36F8FFEE7606BA16B6163A063206A29
:103AE000401C2062FEF7EEFFA06ADFF87880864275
:103AF00009D3606B0068A0B1606BC068C568686876
:103B0000864211D2A0622068C06A00EB800158F89A
:103B10002100012800D90127E0690028C9D0012728
:103B2000C7E74FF0FF30EDE7281DFFF771F9A86AEE
:103B300018B105F11800FFF76BF9E86A21698842AE
:103B400000D9206100EB800108EB8100291DFFF7FF
:103B5000AFF9E86A2168C96A8842CAD30127C8E771
:103B6000100000202001002070B504004FF000017B
:103B700033D01B4D2868844207D0502080F3118831
:103B8000BFF34F8FBFF36F8FFEE7206D38B1401E3C
:103B90002065E36CE26A9A421FD040B11DE05020DC
:103BA00080F31188BFF34F8FBFF36F8FFEE7201DA7
:103BB000FFF72EF9E06CE062C0F13800A061E06A26
:103BC0002969884200D92861064900EB800001EB91
:103BD0008000211DFFF76CF90121084670BD00002F
:103BE000100000202001002070B5C068C46854B1E6
:103BF00004F118000646FFF70BF9144D286B50B17D
:103C00003146134815E0502080F31188BFF34F8FE1
:103C1000BFF36F8FFEE7201DFFF7FAF8E06A29690E
:103C2000884200D928610B4900EB800001EB80003D
:103C3000211DFFF73DF9E06A2968C96A884202D967
:103C40000120E86170BD002070BD00001000002060
:103C5000A8050020200100202DE9F0472C4D00246C
:103C60002746286B38B1FFF72FF9286B401E2863D1
:103C7000286B40B146E0502080F31188BFF34F8F8E
:103C8000BFF36F8FFEE7A968224E0120D1B3A6F5DE
:103C9000916980463068E0B1F068C46804F11800AA
:103CA000FFF7B6F8201DFFF7B3F8E06A29698842EC
:103CB00000D9286100EB800109EB8100211DFFF78D
:103CC000F7F8E06A2968C96A8842E3D3C5F81C801E
:103CD000E0E70CB1FEF7F6FEAC694CB14FEA08061E
:103CE000FFF7DEFE00B1EE61641EF9D10020A8618D
:103CF000E86938B10849012738070860BFF34F8FDA
:103D0000BFF36F8FFFF700F93846BDE8F08700007A
:103D100010000020A805002004ED00E010B586B0DA
:103D2000FEF752FC114C2068B8B1002003900490BB
:103D300005AA04A903A8FFF789F8DDE903210220F9
:103D40008DE8070000230AA10B48059AFFF769FEDA
:103D5000606010B106B0012010BD502080F31188C2
:103D6000BFF34F8FBFF36F8FFEE700004C000020C2
:103D7000546D722053766300D52B00082DE9FF4166
:103D80001E46134602000A9D4FF0000016D0144C48
:103D90002768002F0FD0CDE900130292062917DA09
:103DA000FFF76AFE02284FF000030FD00022694699
:103DB0002068FFF723FC04B0BDE8F081502080F3B9
:103DC0001188BFF34F8FBFF36F8FFEE72A46EEE7F0
:103DD0000023324669463846FFF7C0FCEBE7000097
:103DE0004C0000200000000000000000010203045D
:103DF000060708090000000001020304000000009B
:103E0000E8030000203E000800000000D00700008A
:103E1000283E000800000000F4010000303E0008C9
:103E20005461736B204100005461736B20420000A9
:103E30005461736B20430000583E000800000020CE
:103E400098000000C0190008F03E0008980000200B
:103E500020510000D01900080100000010000000EF
:103E6000000000000024F40000000000000000003A
:103E70000000000000000000000000000000000042
:103E80000000000000000000000000000000000032
:103E90000000000000000000000000000000000022
:103EA0000000000000000000000000000000000012
:103EB0000000000000000000000000000000000002
:103EC00000000000000000000000000000000000F2
:103ED00000000000000000000000000000000000E2
:103EE000AAAAAAAA0000000000000000000000002A
:040000050800018965
:00000001FF
